{
  "_format": "hh-sol-artifact-1",
  "contractName": "GovernorContract",
  "sourceName": "contracts/governance_standard/GovernorContract.sol",
  "abi": [
    {
      "inputs": [
        {
          "internalType": "contract IVotes",
          "name": "_token",
          "type": "address"
        },
        {
          "internalType": "contract TimelockController",
          "name": "_timelock",
          "type": "address"
        },
        {
          "internalType": "uint256",
          "name": "_quorumPercentage",
          "type": "uint256"
        },
        {
          "internalType": "uint256",
          "name": "_votingPeriod",
          "type": "uint256"
        },
        {
          "internalType": "uint256",
          "name": "_votingDelay",
          "type": "uint256"
        }
      ],
      "stateMutability": "nonpayable",
      "type": "constructor"
    },
    {
      "inputs": [],
      "name": "Empty",
      "type": "error"
    },
    {
      "anonymous": false,
      "inputs": [
        {
          "indexed": false,
          "internalType": "uint256",
          "name": "proposalId",
          "type": "uint256"
        }
      ],
      "name": "ProposalCanceled",
      "type": "event"
    },
    {
      "anonymous": false,
      "inputs": [
        {
          "indexed": false,
          "internalType": "uint256",
          "name": "proposalId",
          "type": "uint256"
        },
        {
          "indexed": false,
          "internalType": "address",
          "name": "proposer",
          "type": "address"
        },
        {
          "indexed": false,
          "internalType": "address[]",
          "name": "targets",
          "type": "address[]"
        },
        {
          "indexed": false,
          "internalType": "uint256[]",
          "name": "values",
          "type": "uint256[]"
        },
        {
          "indexed": false,
          "internalType": "string[]",
          "name": "signatures",
          "type": "string[]"
        },
        {
          "indexed": false,
          "internalType": "bytes[]",
          "name": "calldatas",
          "type": "bytes[]"
        },
        {
          "indexed": false,
          "internalType": "uint256",
          "name": "startBlock",
          "type": "uint256"
        },
        {
          "indexed": false,
          "internalType": "uint256",
          "name": "endBlock",
          "type": "uint256"
        },
        {
          "indexed": false,
          "internalType": "string",
          "name": "description",
          "type": "string"
        }
      ],
      "name": "ProposalCreated",
      "type": "event"
    },
    {
      "anonymous": false,
      "inputs": [
        {
          "indexed": false,
          "internalType": "uint256",
          "name": "proposalId",
          "type": "uint256"
        }
      ],
      "name": "ProposalExecuted",
      "type": "event"
    },
    {
      "anonymous": false,
      "inputs": [
        {
          "indexed": false,
          "internalType": "uint256",
          "name": "proposalId",
          "type": "uint256"
        },
        {
          "indexed": false,
          "internalType": "uint256",
          "name": "eta",
          "type": "uint256"
        }
      ],
      "name": "ProposalQueued",
      "type": "event"
    },
    {
      "anonymous": false,
      "inputs": [
        {
          "indexed": false,
          "internalType": "uint256",
          "name": "oldProposalThreshold",
          "type": "uint256"
        },
        {
          "indexed": false,
          "internalType": "uint256",
          "name": "newProposalThreshold",
          "type": "uint256"
        }
      ],
      "name": "ProposalThresholdSet",
      "type": "event"
    },
    {
      "anonymous": false,
      "inputs": [
        {
          "indexed": false,
          "internalType": "uint256",
          "name": "oldQuorumNumerator",
          "type": "uint256"
        },
        {
          "indexed": false,
          "internalType": "uint256",
          "name": "newQuorumNumerator",
          "type": "uint256"
        }
      ],
      "name": "QuorumNumeratorUpdated",
      "type": "event"
    },
    {
      "anonymous": false,
      "inputs": [
        {
          "indexed": false,
          "internalType": "address",
          "name": "oldTimelock",
          "type": "address"
        },
        {
          "indexed": false,
          "internalType": "address",
          "name": "newTimelock",
          "type": "address"
        }
      ],
      "name": "TimelockChange",
      "type": "event"
    },
    {
      "anonymous": false,
      "inputs": [
        {
          "indexed": true,
          "internalType": "address",
          "name": "voter",
          "type": "address"
        },
        {
          "indexed": false,
          "internalType": "uint256",
          "name": "proposalId",
          "type": "uint256"
        },
        {
          "indexed": false,
          "internalType": "uint8",
          "name": "support",
          "type": "uint8"
        },
        {
          "indexed": false,
          "internalType": "uint256",
          "name": "weight",
          "type": "uint256"
        },
        {
          "indexed": false,
          "internalType": "string",
          "name": "reason",
          "type": "string"
        }
      ],
      "name": "VoteCast",
      "type": "event"
    },
    {
      "anonymous": false,
      "inputs": [
        {
          "indexed": true,
          "internalType": "address",
          "name": "voter",
          "type": "address"
        },
        {
          "indexed": false,
          "internalType": "uint256",
          "name": "proposalId",
          "type": "uint256"
        },
        {
          "indexed": false,
          "internalType": "uint8",
          "name": "support",
          "type": "uint8"
        },
        {
          "indexed": false,
          "internalType": "uint256",
          "name": "weight",
          "type": "uint256"
        },
        {
          "indexed": false,
          "internalType": "string",
          "name": "reason",
          "type": "string"
        },
        {
          "indexed": false,
          "internalType": "bytes",
          "name": "params",
          "type": "bytes"
        }
      ],
      "name": "VoteCastWithParams",
      "type": "event"
    },
    {
      "anonymous": false,
      "inputs": [
        {
          "indexed": false,
          "internalType": "uint256",
          "name": "oldVotingDelay",
          "type": "uint256"
        },
        {
          "indexed": false,
          "internalType": "uint256",
          "name": "newVotingDelay",
          "type": "uint256"
        }
      ],
      "name": "VotingDelaySet",
      "type": "event"
    },
    {
      "anonymous": false,
      "inputs": [
        {
          "indexed": false,
          "internalType": "uint256",
          "name": "oldVotingPeriod",
          "type": "uint256"
        },
        {
          "indexed": false,
          "internalType": "uint256",
          "name": "newVotingPeriod",
          "type": "uint256"
        }
      ],
      "name": "VotingPeriodSet",
      "type": "event"
    },
    {
      "inputs": [],
      "name": "BALLOT_TYPEHASH",
      "outputs": [
        {
          "internalType": "bytes32",
          "name": "",
          "type": "bytes32"
        }
      ],
      "stateMutability": "view",
      "type": "function"
    },
    {
      "inputs": [],
      "name": "COUNTING_MODE",
      "outputs": [
        {
          "internalType": "string",
          "name": "",
          "type": "string"
        }
      ],
      "stateMutability": "pure",
      "type": "function"
    },
    {
      "inputs": [],
      "name": "EXTENDED_BALLOT_TYPEHASH",
      "outputs": [
        {
          "internalType": "bytes32",
          "name": "",
          "type": "bytes32"
        }
      ],
      "stateMutability": "view",
      "type": "function"
    },
    {
      "inputs": [
        {
          "internalType": "uint256",
          "name": "proposalId",
          "type": "uint256"
        },
        {
          "internalType": "uint8",
          "name": "support",
          "type": "uint8"
        }
      ],
      "name": "castVote",
      "outputs": [
        {
          "internalType": "uint256",
          "name": "",
          "type": "uint256"
        }
      ],
      "stateMutability": "nonpayable",
      "type": "function"
    },
    {
      "inputs": [
        {
          "internalType": "uint256",
          "name": "proposalId",
          "type": "uint256"
        },
        {
          "internalType": "uint8",
          "name": "support",
          "type": "uint8"
        },
        {
          "internalType": "uint8",
          "name": "v",
          "type": "uint8"
        },
        {
          "internalType": "bytes32",
          "name": "r",
          "type": "bytes32"
        },
        {
          "internalType": "bytes32",
          "name": "s",
          "type": "bytes32"
        }
      ],
      "name": "castVoteBySig",
      "outputs": [
        {
          "internalType": "uint256",
          "name": "",
          "type": "uint256"
        }
      ],
      "stateMutability": "nonpayable",
      "type": "function"
    },
    {
      "inputs": [
        {
          "internalType": "uint256",
          "name": "proposalId",
          "type": "uint256"
        },
        {
          "internalType": "uint8",
          "name": "support",
          "type": "uint8"
        },
        {
          "internalType": "string",
          "name": "reason",
          "type": "string"
        }
      ],
      "name": "castVoteWithReason",
      "outputs": [
        {
          "internalType": "uint256",
          "name": "",
          "type": "uint256"
        }
      ],
      "stateMutability": "nonpayable",
      "type": "function"
    },
    {
      "inputs": [
        {
          "internalType": "uint256",
          "name": "proposalId",
          "type": "uint256"
        },
        {
          "internalType": "uint8",
          "name": "support",
          "type": "uint8"
        },
        {
          "internalType": "string",
          "name": "reason",
          "type": "string"
        },
        {
          "internalType": "bytes",
          "name": "params",
          "type": "bytes"
        }
      ],
      "name": "castVoteWithReasonAndParams",
      "outputs": [
        {
          "internalType": "uint256",
          "name": "",
          "type": "uint256"
        }
      ],
      "stateMutability": "nonpayable",
      "type": "function"
    },
    {
      "inputs": [
        {
          "internalType": "uint256",
          "name": "proposalId",
          "type": "uint256"
        },
        {
          "internalType": "uint8",
          "name": "support",
          "type": "uint8"
        },
        {
          "internalType": "string",
          "name": "reason",
          "type": "string"
        },
        {
          "internalType": "bytes",
          "name": "params",
          "type": "bytes"
        },
        {
          "internalType": "uint8",
          "name": "v",
          "type": "uint8"
        },
        {
          "internalType": "bytes32",
          "name": "r",
          "type": "bytes32"
        },
        {
          "internalType": "bytes32",
          "name": "s",
          "type": "bytes32"
        }
      ],
      "name": "castVoteWithReasonAndParamsBySig",
      "outputs": [
        {
          "internalType": "uint256",
          "name": "",
          "type": "uint256"
        }
      ],
      "stateMutability": "nonpayable",
      "type": "function"
    },
    {
      "inputs": [
        {
          "internalType": "address[]",
          "name": "targets",
          "type": "address[]"
        },
        {
          "internalType": "uint256[]",
          "name": "values",
          "type": "uint256[]"
        },
        {
          "internalType": "bytes[]",
          "name": "calldatas",
          "type": "bytes[]"
        },
        {
          "internalType": "string",
          "name": "title",
          "type": "string"
        },
        {
          "internalType": "string",
          "name": "pullRequestUrl",
          "type": "string"
        },
        {
          "internalType": "string",
          "name": "description",
          "type": "string"
        }
      ],
      "name": "createProposal",
      "outputs": [
        {
          "internalType": "uint256",
          "name": "",
          "type": "uint256"
        }
      ],
      "stateMutability": "nonpayable",
      "type": "function"
    },
    {
      "inputs": [
        {
          "internalType": "address[]",
          "name": "targets",
          "type": "address[]"
        },
        {
          "internalType": "uint256[]",
          "name": "values",
          "type": "uint256[]"
        },
        {
          "internalType": "bytes[]",
          "name": "calldatas",
          "type": "bytes[]"
        },
        {
          "internalType": "bytes32",
          "name": "descriptionHash",
          "type": "bytes32"
        }
      ],
      "name": "execute",
      "outputs": [
        {
          "internalType": "uint256",
          "name": "",
          "type": "uint256"
        }
      ],
      "stateMutability": "payable",
      "type": "function"
    },
    {
      "inputs": [
        {
          "internalType": "uint256",
          "name": "_proposalId",
          "type": "uint256"
        },
        {
          "internalType": "address[]",
          "name": "targets",
          "type": "address[]"
        },
        {
          "internalType": "uint256[]",
          "name": "values",
          "type": "uint256[]"
        },
        {
          "internalType": "bytes[]",
          "name": "calldatas",
          "type": "bytes[]"
        },
        {
          "internalType": "bytes32",
          "name": "descriptionHash",
          "type": "bytes32"
        }
      ],
      "name": "executeProposal",
      "outputs": [
        {
          "internalType": "uint256",
          "name": "",
          "type": "uint256"
        }
      ],
      "stateMutability": "nonpayable",
      "type": "function"
    },
    {
      "inputs": [],
      "name": "getAllProposals",
      "outputs": [
        {
          "components": [
            {
              "internalType": "uint256",
              "name": "id",
              "type": "uint256"
            },
            {
              "internalType": "string",
              "name": "title",
              "type": "string"
            },
            {
              "internalType": "string",
              "name": "description",
              "type": "string"
            },
            {
              "internalType": "string",
              "name": "pullRequestUrl",
              "type": "string"
            },
            {
              "internalType": "address",
              "name": "proposer",
              "type": "address"
            },
            {
              "internalType": "uint256",
              "name": "eta",
              "type": "uint256"
            },
            {
              "internalType": "uint256",
              "name": "startBlock",
              "type": "uint256"
            },
            {
              "internalType": "uint256",
              "name": "endBlock",
              "type": "uint256"
            },
            {
              "internalType": "address[]",
              "name": "forVotes",
              "type": "address[]"
            },
            {
              "internalType": "address[]",
              "name": "againstVotes",
              "type": "address[]"
            },
            {
              "internalType": "address[]",
              "name": "abstainVotes",
              "type": "address[]"
            },
            {
              "internalType": "bool",
              "name": "canceled",
              "type": "bool"
            },
            {
              "internalType": "bool",
              "name": "executed",
              "type": "bool"
            }
          ],
          "internalType": "struct GovernorContract.Proposal[]",
          "name": "",
          "type": "tuple[]"
        }
      ],
      "stateMutability": "view",
      "type": "function"
    },
    {
      "inputs": [
        {
          "internalType": "uint256",
          "name": "_proposalId",
          "type": "uint256"
        }
      ],
      "name": "getProposal",
      "outputs": [
        {
          "components": [
            {
              "internalType": "uint256",
              "name": "id",
              "type": "uint256"
            },
            {
              "internalType": "string",
              "name": "title",
              "type": "string"
            },
            {
              "internalType": "string",
              "name": "description",
              "type": "string"
            },
            {
              "internalType": "string",
              "name": "pullRequestUrl",
              "type": "string"
            },
            {
              "internalType": "address",
              "name": "proposer",
              "type": "address"
            },
            {
              "internalType": "uint256",
              "name": "eta",
              "type": "uint256"
            },
            {
              "internalType": "uint256",
              "name": "startBlock",
              "type": "uint256"
            },
            {
              "internalType": "uint256",
              "name": "endBlock",
              "type": "uint256"
            },
            {
              "internalType": "address[]",
              "name": "forVotes",
              "type": "address[]"
            },
            {
              "internalType": "address[]",
              "name": "againstVotes",
              "type": "address[]"
            },
            {
              "internalType": "address[]",
              "name": "abstainVotes",
              "type": "address[]"
            },
            {
              "internalType": "bool",
              "name": "canceled",
              "type": "bool"
            },
            {
              "internalType": "bool",
              "name": "executed",
              "type": "bool"
            }
          ],
          "internalType": "struct GovernorContract.Proposal",
          "name": "",
          "type": "tuple"
        }
      ],
      "stateMutability": "view",
      "type": "function"
    },
    {
      "inputs": [
        {
          "internalType": "address",
          "name": "account",
          "type": "address"
        },
        {
          "internalType": "uint256",
          "name": "blockNumber",
          "type": "uint256"
        }
      ],
      "name": "getVotes",
      "outputs": [
        {
          "internalType": "uint256",
          "name": "",
          "type": "uint256"
        }
      ],
      "stateMutability": "view",
      "type": "function"
    },
    {
      "inputs": [
        {
          "internalType": "address",
          "name": "account",
          "type": "address"
        },
        {
          "internalType": "uint256",
          "name": "blockNumber",
          "type": "uint256"
        },
        {
          "internalType": "bytes",
          "name": "params",
          "type": "bytes"
        }
      ],
      "name": "getVotesWithParams",
      "outputs": [
        {
          "internalType": "uint256",
          "name": "",
          "type": "uint256"
        }
      ],
      "stateMutability": "view",
      "type": "function"
    },
    {
      "inputs": [
        {
          "internalType": "uint256",
          "name": "proposalId",
          "type": "uint256"
        },
        {
          "internalType": "address",
          "name": "account",
          "type": "address"
        }
      ],
      "name": "hasVoted",
      "outputs": [
        {
          "internalType": "bool",
          "name": "",
          "type": "bool"
        }
      ],
      "stateMutability": "view",
      "type": "function"
    },
    {
      "inputs": [
        {
          "internalType": "address[]",
          "name": "targets",
          "type": "address[]"
        },
        {
          "internalType": "uint256[]",
          "name": "values",
          "type": "uint256[]"
        },
        {
          "internalType": "bytes[]",
          "name": "calldatas",
          "type": "bytes[]"
        },
        {
          "internalType": "bytes32",
          "name": "descriptionHash",
          "type": "bytes32"
        }
      ],
      "name": "hashProposal",
      "outputs": [
        {
          "internalType": "uint256",
          "name": "",
          "type": "uint256"
        }
      ],
      "stateMutability": "pure",
      "type": "function"
    },
    {
      "inputs": [],
      "name": "name",
      "outputs": [
        {
          "internalType": "string",
          "name": "",
          "type": "string"
        }
      ],
      "stateMutability": "view",
      "type": "function"
    },
    {
      "inputs": [
        {
          "internalType": "address",
          "name": "",
          "type": "address"
        },
        {
          "internalType": "address",
          "name": "",
          "type": "address"
        },
        {
          "internalType": "uint256[]",
          "name": "",
          "type": "uint256[]"
        },
        {
          "internalType": "uint256[]",
          "name": "",
          "type": "uint256[]"
        },
        {
          "internalType": "bytes",
          "name": "",
          "type": "bytes"
        }
      ],
      "name": "onERC1155BatchReceived",
      "outputs": [
        {
          "internalType": "bytes4",
          "name": "",
          "type": "bytes4"
        }
      ],
      "stateMutability": "nonpayable",
      "type": "function"
    },
    {
      "inputs": [
        {
          "internalType": "address",
          "name": "",
          "type": "address"
        },
        {
          "internalType": "address",
          "name": "",
          "type": "address"
        },
        {
          "internalType": "uint256",
          "name": "",
          "type": "uint256"
        },
        {
          "internalType": "uint256",
          "name": "",
          "type": "uint256"
        },
        {
          "internalType": "bytes",
          "name": "",
          "type": "bytes"
        }
      ],
      "name": "onERC1155Received",
      "outputs": [
        {
          "internalType": "bytes4",
          "name": "",
          "type": "bytes4"
        }
      ],
      "stateMutability": "nonpayable",
      "type": "function"
    },
    {
      "inputs": [
        {
          "internalType": "address",
          "name": "",
          "type": "address"
        },
        {
          "internalType": "address",
          "name": "",
          "type": "address"
        },
        {
          "internalType": "uint256",
          "name": "",
          "type": "uint256"
        },
        {
          "internalType": "bytes",
          "name": "",
          "type": "bytes"
        }
      ],
      "name": "onERC721Received",
      "outputs": [
        {
          "internalType": "bytes4",
          "name": "",
          "type": "bytes4"
        }
      ],
      "stateMutability": "nonpayable",
      "type": "function"
    },
    {
      "inputs": [
        {
          "internalType": "uint256",
          "name": "proposalId",
          "type": "uint256"
        }
      ],
      "name": "proposalDeadline",
      "outputs": [
        {
          "internalType": "uint256",
          "name": "",
          "type": "uint256"
        }
      ],
      "stateMutability": "view",
      "type": "function"
    },
    {
      "inputs": [
        {
          "internalType": "uint256",
          "name": "proposalId",
          "type": "uint256"
        }
      ],
      "name": "proposalEta",
      "outputs": [
        {
          "internalType": "uint256",
          "name": "",
          "type": "uint256"
        }
      ],
      "stateMutability": "view",
      "type": "function"
    },
    {
      "inputs": [
        {
          "internalType": "uint256",
          "name": "proposalId",
          "type": "uint256"
        }
      ],
      "name": "proposalSnapshot",
      "outputs": [
        {
          "internalType": "uint256",
          "name": "",
          "type": "uint256"
        }
      ],
      "stateMutability": "view",
      "type": "function"
    },
    {
      "inputs": [],
      "name": "proposalThreshold",
      "outputs": [
        {
          "internalType": "uint256",
          "name": "",
          "type": "uint256"
        }
      ],
      "stateMutability": "view",
      "type": "function"
    },
    {
      "inputs": [
        {
          "internalType": "uint256",
          "name": "proposalId",
          "type": "uint256"
        }
      ],
      "name": "proposalVotes",
      "outputs": [
        {
          "internalType": "uint256",
          "name": "againstVotes",
          "type": "uint256"
        },
        {
          "internalType": "uint256",
          "name": "forVotes",
          "type": "uint256"
        },
        {
          "internalType": "uint256",
          "name": "abstainVotes",
          "type": "uint256"
        }
      ],
      "stateMutability": "view",
      "type": "function"
    },
    {
      "inputs": [
        {
          "internalType": "uint256",
          "name": "",
          "type": "uint256"
        }
      ],
      "name": "proposals",
      "outputs": [
        {
          "internalType": "uint256",
          "name": "id",
          "type": "uint256"
        },
        {
          "internalType": "string",
          "name": "title",
          "type": "string"
        },
        {
          "internalType": "string",
          "name": "description",
          "type": "string"
        },
        {
          "internalType": "string",
          "name": "pullRequestUrl",
          "type": "string"
        },
        {
          "internalType": "address",
          "name": "proposer",
          "type": "address"
        },
        {
          "internalType": "uint256",
          "name": "eta",
          "type": "uint256"
        },
        {
          "internalType": "uint256",
          "name": "startBlock",
          "type": "uint256"
        },
        {
          "internalType": "uint256",
          "name": "endBlock",
          "type": "uint256"
        },
        {
          "internalType": "bool",
          "name": "canceled",
          "type": "bool"
        },
        {
          "internalType": "bool",
          "name": "executed",
          "type": "bool"
        }
      ],
      "stateMutability": "view",
      "type": "function"
    },
    {
      "inputs": [
        {
          "internalType": "address[]",
          "name": "targets",
          "type": "address[]"
        },
        {
          "internalType": "uint256[]",
          "name": "values",
          "type": "uint256[]"
        },
        {
          "internalType": "bytes[]",
          "name": "calldatas",
          "type": "bytes[]"
        },
        {
          "internalType": "string",
          "name": "description",
          "type": "string"
        }
      ],
      "name": "propose",
      "outputs": [
        {
          "internalType": "uint256",
          "name": "",
          "type": "uint256"
        }
      ],
      "stateMutability": "nonpayable",
      "type": "function"
    },
    {
      "inputs": [
        {
          "internalType": "address[]",
          "name": "targets",
          "type": "address[]"
        },
        {
          "internalType": "uint256[]",
          "name": "values",
          "type": "uint256[]"
        },
        {
          "internalType": "bytes[]",
          "name": "calldatas",
          "type": "bytes[]"
        },
        {
          "internalType": "bytes32",
          "name": "descriptionHash",
          "type": "bytes32"
        }
      ],
      "name": "queue",
      "outputs": [
        {
          "internalType": "uint256",
          "name": "",
          "type": "uint256"
        }
      ],
      "stateMutability": "nonpayable",
      "type": "function"
    },
    {
      "inputs": [
        {
          "internalType": "uint256",
          "name": "blockNumber",
          "type": "uint256"
        }
      ],
      "name": "quorum",
      "outputs": [
        {
          "internalType": "uint256",
          "name": "",
          "type": "uint256"
        }
      ],
      "stateMutability": "view",
      "type": "function"
    },
    {
      "inputs": [],
      "name": "quorumDenominator",
      "outputs": [
        {
          "internalType": "uint256",
          "name": "",
          "type": "uint256"
        }
      ],
      "stateMutability": "view",
      "type": "function"
    },
    {
      "inputs": [
        {
          "internalType": "uint256",
          "name": "blockNumber",
          "type": "uint256"
        }
      ],
      "name": "quorumNumerator",
      "outputs": [
        {
          "internalType": "uint256",
          "name": "",
          "type": "uint256"
        }
      ],
      "stateMutability": "view",
      "type": "function"
    },
    {
      "inputs": [],
      "name": "quorumNumerator",
      "outputs": [
        {
          "internalType": "uint256",
          "name": "",
          "type": "uint256"
        }
      ],
      "stateMutability": "view",
      "type": "function"
    },
    {
      "inputs": [
        {
          "internalType": "address",
          "name": "target",
          "type": "address"
        },
        {
          "internalType": "uint256",
          "name": "value",
          "type": "uint256"
        },
        {
          "internalType": "bytes",
          "name": "data",
          "type": "bytes"
        }
      ],
      "name": "relay",
      "outputs": [],
      "stateMutability": "payable",
      "type": "function"
    },
    {
      "inputs": [
        {
          "internalType": "uint256",
          "name": "newProposalThreshold",
          "type": "uint256"
        }
      ],
      "name": "setProposalThreshold",
      "outputs": [],
      "stateMutability": "nonpayable",
      "type": "function"
    },
    {
      "inputs": [
        {
          "internalType": "uint256",
          "name": "newVotingDelay",
          "type": "uint256"
        }
      ],
      "name": "setVotingDelay",
      "outputs": [],
      "stateMutability": "nonpayable",
      "type": "function"
    },
    {
      "inputs": [
        {
          "internalType": "uint256",
          "name": "newVotingPeriod",
          "type": "uint256"
        }
      ],
      "name": "setVotingPeriod",
      "outputs": [],
      "stateMutability": "nonpayable",
      "type": "function"
    },
    {
      "inputs": [
        {
          "internalType": "uint256",
          "name": "_proposalId",
          "type": "uint256"
        }
      ],
      "name": "state",
      "outputs": [
        {
          "internalType": "enum IGovernor.ProposalState",
          "name": "",
          "type": "uint8"
        }
      ],
      "stateMutability": "view",
      "type": "function"
    },
    {
      "inputs": [
        {
          "internalType": "bytes4",
          "name": "interfaceId",
          "type": "bytes4"
        }
      ],
      "name": "supportsInterface",
      "outputs": [
        {
          "internalType": "bool",
          "name": "",
          "type": "bool"
        }
      ],
      "stateMutability": "view",
      "type": "function"
    },
    {
      "inputs": [],
      "name": "timelock",
      "outputs": [
        {
          "internalType": "address",
          "name": "",
          "type": "address"
        }
      ],
      "stateMutability": "view",
      "type": "function"
    },
    {
      "inputs": [],
      "name": "token",
      "outputs": [
        {
          "internalType": "contract IVotes",
          "name": "",
          "type": "address"
        }
      ],
      "stateMutability": "view",
      "type": "function"
    },
    {
      "inputs": [
        {
          "internalType": "uint256",
          "name": "newQuorumNumerator",
          "type": "uint256"
        }
      ],
      "name": "updateQuorumNumerator",
      "outputs": [],
      "stateMutability": "nonpayable",
      "type": "function"
    },
    {
      "inputs": [
        {
          "internalType": "contract TimelockController",
          "name": "newTimelock",
          "type": "address"
        }
      ],
      "name": "updateTimelock",
      "outputs": [],
      "stateMutability": "nonpayable",
      "type": "function"
    },
    {
      "inputs": [],
      "name": "version",
      "outputs": [
        {
          "internalType": "string",
          "name": "",
          "type": "string"
        }
      ],
      "stateMutability": "view",
      "type": "function"
    },
    {
      "inputs": [
        {
          "internalType": "uint256",
          "name": "_proposalId",
          "type": "uint256"
        },
        {
          "internalType": "uint8",
          "name": "support",
          "type": "uint8"
        }
      ],
      "name": "voteProposal",
      "outputs": [
        {
          "internalType": "uint256",
          "name": "balance",
          "type": "uint256"
        }
      ],
      "stateMutability": "nonpayable",
      "type": "function"
    },
    {
      "inputs": [],
      "name": "votingDelay",
      "outputs": [
        {
          "internalType": "uint256",
          "name": "",
          "type": "uint256"
        }
      ],
      "stateMutability": "view",
      "type": "function"
    },
    {
      "inputs": [],
      "name": "votingPeriod",
      "outputs": [
        {
          "internalType": "uint256",
          "name": "",
          "type": "uint256"
        }
      ],
      "stateMutability": "view",
      "type": "function"
    },
    {
      "stateMutability": "payable",
      "type": "receive"
    }
  ],
  "bytecode": "0x6101606040526000600c553480156200001757600080fd5b5060405162005812380380620058128339810160408190526200003a91620008bb565b838386838560006040518060400160405280601081526020016f11dbdd995c9b9bdc90dbdb9d1c9858dd60821b815250806200007b6200017860201b60201c565b815160208084019190912082518383012060e08290526101008190524660a0818152604080517f8b73c3c69bb8fe3d512ecc4cf759cc79239f7b179b0ffacaa9a75d522b39400f81880181905281830187905260608201869052608082019490945230818401528151808203909301835260c00190528051940193909320919290916080523060c052610120525050825162000121925060009150602084019062000806565b506200012f90508362000193565b6200013a82620001d4565b62000145816200027b565b5050506001600160a01b0316610140526200016081620002bc565b506200016c8162000434565b50505050505062000976565b6040805180820190915260018152603160f81b602082015290565b60045460408051918252602082018390527fc565b045403dc03c2eea82b81a0465edad9e2e7fc4d97e11421c209da93d7a93910160405180910390a1600455565b600081116200023a5760405162461bcd60e51b815260206004820152602760248201527f476f7665726e6f7253657474696e67733a20766f74696e6720706572696f6420604482015266746f6f206c6f7760c81b60648201526084015b60405180910390fd5b60055460408051918252602082018390527f7e3f7f0708a84de9203036abaa450dccc85ad5ff52f78c170f3edb55cf5e8828910160405180910390a1600555565b60065460408051918252602082018390527fccb45da8d5717e6c4544694297c4ba5cf151d455c9bb0ed4fc7a38411bc05461910160405180910390a1600655565b6064811115620003415760405162461bcd60e51b815260206004820152604360248201527f476f7665726e6f72566f74657351756f72756d4672616374696f6e3a2071756f60448201527f72756d4e756d657261746f72206f7665722071756f72756d44656e6f6d696e616064820152623a37b960e91b608482015260a40162000231565b60006200034d6200049d565b905080158015906200035f5750600954155b15620003da5760096000016040518060400160405280600063ffffffff1681526020016200039884620004d560201b620025891760201c565b6001600160e01b0390811690915282546001810184556000938452602093849020835194909301519091166401000000000263ffffffff909316929092179101555b620003f58260096200054460201b620025f61790919060201c565b505060408051828152602081018490527f0553476bf02ef2726e8ce5ced78d63e26e602e4a2257b1f559418e24b4633997910160405180910390a15050565b600a54604080516001600160a01b03928316815291831660208301527f08f74ea46ef7894f65eabfb5e6e695de773a000b47c529ab559178069b226401910160405180910390a1600a80546001600160a01b0319166001600160a01b0392909216919091179055565b60095460009015620004ce57620004c060096200059760201b6200262c1760201c565b6001600160e01b0316905090565b5060085490565b60006001600160e01b03821115620005405760405162461bcd60e51b815260206004820152602760248201527f53616665436173743a2076616c756520646f65736e27742066697420696e20326044820152663234206269747360c81b606482015260840162000231565b5090565b60008062000581846000016200056543620005e560201b6200266a1760201c565b6200057b86620004d560201b620025891760201c565b6200064c565b6001600160e01b03918216969116945092505050565b80546000908015620005db57620005c383620005b560018462000913565b600091825260209091200190565b5464010000000090046001600160e01b0316620005de565b60005b9392505050565b600063ffffffff821115620005405760405162461bcd60e51b815260206004820152602660248201527f53616665436173743a2076616c756520646f65736e27742066697420696e203360448201526532206269747360d01b606482015260840162000231565b825460009081908015620007a85760006200066e87620005b560018562000913565b60408051808201909152905463ffffffff8082168084526401000000009092046001600160e01b031660208401529192509087161015620006f25760405162461bcd60e51b815260206004820152601760248201527f436865636b706f696e743a20696e76616c6964206b6579000000000000000000604482015260640162000231565b8563ffffffff16816000015163ffffffff1614156200074757846200071e88620005b560018662000913565b80546001600160e01b03929092166401000000000263ffffffff90921691909117905562000797565b6040805180820190915263ffffffff80881682526001600160e01b0380881660208085019182528b54600181018d5560008d81529190912094519151909216640100000000029216919091179101555b602001519250839150620007fe9050565b50506040805180820190915263ffffffff80851682526001600160e01b0380851660208085019182528854600181018a5560008a8152918220955192519093166401000000000291909316179201919091559050815b935093915050565b828054620008149062000939565b90600052602060002090601f01602090048101928262000838576000855562000883565b82601f106200085357805160ff191683800117855562000883565b8280016001018555821562000883579182015b828111156200088357825182559160200191906001019062000866565b50620005409291505b808211156200054057600081556001016200088c565b6001600160a01b0381168114620008b857600080fd5b50565b600080600080600060a08688031215620008d457600080fd5b8551620008e181620008a2565b6020870151909550620008f481620008a2565b6040870151606088015160809098015196999198509695945092505050565b6000828210156200093457634e487b7160e01b600052601160045260246000fd5b500390565b600181811c908216806200094e57607f821691505b602082108114156200097057634e487b7160e01b600052602260045260246000fd5b50919050565b60805160a05160c05160e051610100516101205161014051614e33620009df6000396000818161097401528181612e8e01526130b20152600061345b015260006134aa01526000613485015260006133de01526000613408015260006134320152614e336000f3fe60806040526004361061028c5760003560e01c80637b3c71d31161015a578063c7f758a8116100c1578063eb9019d41161007a578063eb9019d4146108d6578063ece40cc1146108f6578063f23a6e6114610916578063f8ce560a14610942578063fc0c546a14610962578063fe9e835e1461099657600080fd5b8063c7f758a8146107bb578063cceb68f5146107e8578063d33219b41461080a578063dd4e2ba51461083c578063deaaa7cc14610882578063ea0217cf146108b657600080fd5b8063ab58fb8e11610113578063ab58fb8e14610707578063b58131b014610727578063bc197c811461073c578063c01f9e3714610768578063c28bc2fa14610788578063c59057e41461079b57600080fd5b80637b3c71d31461065e5780637d5e81e21461067e57806397c3d3341461069e5780639a802a6d146106b2578063a7713a70146106d2578063a890c910146106e757600080fd5b80633932abb1116101fe57806354fd4d50116101b757806354fd4d501461059457806356781388146105be5780635f398a14146105de57806360c4247f146105fe57806363452c6e1461061e57806370b0f6601461063e57600080fd5b80633932abb1146104735780633bccf4fd146104885780633dca3d34146104a85780633e4f49e6146104c857806343859632146104f5578063544ffc9c1461053f57600080fd5b806306fdde031161025057806306fdde0314610386578063150b7a02146103a8578063160cbed7146103ec5780632656227d1461040c5780632d63f6931461041f5780632fe3e2611461043f57600080fd5b8063013cf08b146102b457806301ffc9a7146102f357806302a251a314610323578063034201811461034657806306f3f9e61461036657600080fd5b366102af573061029a6109b6565b6001600160a01b0316146102ad57600080fd5b005b600080fd5b3480156102c057600080fd5b506102d46102cf366004613c0a565b6109cf565b6040516102ea9a99989796959493929190613c70565b60405180910390f35b3480156102ff57600080fd5b5061031361030e366004613cf6565b610bc5565b60405190151581526020016102ea565b34801561032f57600080fd5b50610338610bd6565b6040519081526020016102ea565b34801561035257600080fd5b50610338610361366004613e2c565b610be1565b34801561037257600080fd5b506102ad610381366004613c0a565b610cd9565b34801561039257600080fd5b5061039b610d71565b6040516102ea9190613ed2565b3480156103b457600080fd5b506103d36103c3366004613efa565b630a85bd0160e11b949350505050565b6040516001600160e01b031990911681526020016102ea565b3480156103f857600080fd5b506103386104073660046140d6565b610e03565b61033861041a3660046140d6565b611021565b34801561042b57600080fd5b5061033861043a366004613c0a565b61110e565b34801561044b57600080fd5b506103387fb3b3f3b703cd84ce352197dcff232b1b5d3cfb2025ce47cf04742d0651f1af8881565b34801561047f57600080fd5b50610338611145565b34801561049457600080fd5b506103386104a3366004614165565b611150565b3480156104b457600080fd5b506103386104c33660046141b3565b6111c6565b3480156104d457600080fd5b506104e86104e3366004613c0a565b61127e565b6040516102ea91906141f5565b34801561050157600080fd5b5061031361051036600461421d565b60008281526007602090815260408083206001600160a01b038516845260030190915290205460ff1692915050565b34801561054b57600080fd5b5061057961055a366004613c0a565b6000908152600760205260409020805460018201546002909201549092565b604080519384526020840192909252908201526060016102ea565b3480156105a057600080fd5b506040805180820190915260018152603160f81b602082015261039b565b3480156105ca57600080fd5b506103386105d93660046141b3565b611289565b3480156105ea57600080fd5b506103386105f936600461424d565b6112b2565b34801561060a57600080fd5b50610338610619366004613c0a565b6112fc565b34801561062a57600080fd5b506103386106393660046142d0565b611391565b34801561064a57600080fd5b506102ad610659366004613c0a565b6115f1565b34801561066a57600080fd5b506103386106793660046143c4565b61167d565b34801561068a57600080fd5b5061033861069936600461441d565b6116cf565b3480156106aa57600080fd5b506064610338565b3480156106be57600080fd5b506103386106cd3660046144bd565b611992565b3480156106de57600080fd5b506103386119a9565b3480156106f357600080fd5b506102ad610702366004614515565b6119d3565b34801561071357600080fd5b50610338610722366004613c0a565b611a5f565b34801561073357600080fd5b50610338611b08565b34801561074857600080fd5b506103d3610757366004614532565b63bc197c8160e01b95945050505050565b34801561077457600080fd5b50610338610783366004613c0a565b611b13565b6102ad6107963660046145c5565b611b42565b3480156107a757600080fd5b506103386107b63660046140d6565b611c56565b3480156107c757600080fd5b506107db6107d6366004613c0a565b611c90565b6040516102ea9190614751565b3480156107f457600080fd5b506107fd612011565b6040516102ea9190614764565b34801561081657600080fd5b50600a546001600160a01b03165b6040516001600160a01b0390911681526020016102ea565b34801561084857600080fd5b506040805180820190915260208082527f737570706f72743d627261766f2671756f72756d3d666f722c6162737461696e9082015261039b565b34801561088e57600080fd5b506103387f150214d74d59b7d1e90c73fc22ef3d991dd0a76b046543d4d80ab92d2a50328f81565b3480156108c257600080fd5b506102ad6108d1366004613c0a565b612423565b3480156108e257600080fd5b506103386108f13660046147c6565b6124af565b34801561090257600080fd5b506102ad610911366004613c0a565b6124bb565b34801561092257600080fd5b506103d36109313660046147f2565b63f23a6e6160e01b95945050505050565b34801561094e57600080fd5b5061033861095d366004613c0a565b612547565b34801561096e57600080fd5b506108247f000000000000000000000000000000000000000000000000000000000000000081565b3480156109a257600080fd5b506103386109b136600461485a565b612552565b60006109ca600a546001600160a01b031690565b905090565b600d60205260009081526040902080546001820180549192916109f1906148f3565b80601f0160208091040260200160405190810160405280929190818152602001828054610a1d906148f3565b8015610a6a5780601f10610a3f57610100808354040283529160200191610a6a565b820191906000526020600020905b815481529060010190602001808311610a4d57829003601f168201915b505050505090806002018054610a7f906148f3565b80601f0160208091040260200160405190810160405280929190818152602001828054610aab906148f3565b8015610af85780601f10610acd57610100808354040283529160200191610af8565b820191906000526020600020905b815481529060010190602001808311610adb57829003601f168201915b505050505090806003018054610b0d906148f3565b80601f0160208091040260200160405190810160405280929190818152602001828054610b39906148f3565b8015610b865780601f10610b5b57610100808354040283529160200191610b86565b820191906000526020600020905b815481529060010190602001808311610b6957829003601f168201915b5050506004840154600585015460068601546007870154600b9097015495966001600160a01b0390931695919450925060ff808216916101009004168a565b6000610bd0826126cf565b92915050565b60006109ca60055490565b600080610c85610c7d7fb3b3f3b703cd84ce352197dcff232b1b5d3cfb2025ce47cf04742d0651f1af888c8c8c8c604051610c1d929190614928565b60405180910390208b80519060200120604051602001610c62959493929190948552602085019390935260ff9190911660408401526060830152608082015260a00190565b604051602081830303815290604052805190602001206126f4565b868686612742565b9050610ccb8a828b8b8b8080601f0160208091040260200160405190810160405280939291908181526020018383808284376000920191909152508d9250612760915050565b9a9950505050505050505050565b610ce16109b6565b6001600160a01b0316336001600160a01b031614610d1a5760405162461bcd60e51b8152600401610d1190614938565b60405180910390fd5b30610d236109b6565b6001600160a01b031614610d655760008036604051610d43929190614928565b604051809103902090505b80610d5960026128c2565b14610d6357610d4e565b505b610d6e81612941565b50565b606060008054610d80906148f3565b80601f0160208091040260200160405190810160405280929190818152602001828054610dac906148f3565b8015610df95780601f10610dce57610100808354040283529160200191610df9565b820191906000526020600020905b815481529060010190602001808311610ddc57829003601f168201915b5050505050905090565b600080610e1286868686611c56565b90506004610e1f8261127e565b6007811115610e3057610e306141df565b14610e4d5760405162461bcd60e51b8152600401610d119061496f565b600a546040805163793d064960e11b815290516000926001600160a01b03169163f27a0c92916004808301926020929190829003018186803b158015610e9257600080fd5b505afa158015610ea6573d6000803e3d6000fd5b505050506040513d601f19601f82011682018060405250810190610eca91906149b0565b600a5460405163b1c5f42760e01b81529192506001600160a01b03169063b1c5f42790610f04908a908a908a906000908b90600401614a4e565b60206040518083038186803b158015610f1c57600080fd5b505afa158015610f30573d6000803e3d6000fd5b505050506040513d601f19601f82011682018060405250810190610f5491906149b0565b6000838152600b602052604080822092909255600a5491516308f2a0bb60e41b81526001600160a01b0390921691638f2a0bb091610f9f918b918b918b91908b908990600401614a9c565b600060405180830381600087803b158015610fb957600080fd5b505af1158015610fcd573d6000803e3d6000fd5b505050507f9a2e42fd6722813d69113e7d0079d3d940171428df7373df9c7f7617cfda2892828242610fff9190614b0a565b6040805192835260208301919091520160405180910390a15095945050505050565b60008061103086868686611c56565b9050600061103d8261127e565b90506004816007811115611053576110536141df565b14806110705750600581600781111561106e5761106e6141df565b145b61108c5760405162461bcd60e51b8152600401610d119061496f565b600082815260016020818152604092839020600201805460ff191690921790915590518381527f712ae1383f79ac853f8d882153778e0260ef8f03b504e2866e0593e04d2b291f910160405180910390a16110ea8288888888612a8d565b6110f78288888888612b30565b6111048288888888612b3d565b5095945050505050565b60008181526001602090815260408083208151928301909152546001600160401b0316908190525b6001600160401b031692915050565b60006109ca60045490565b604080517f150214d74d59b7d1e90c73fc22ef3d991dd0a76b046543d4d80ab92d2a50328f602082015290810186905260ff85166060820152600090819061119e90610c7d90608001610c62565b90506111bb87828860405180602001604052806000815250612b76565b979650505050505050565b6000828152600d6020526040812060ff831661120857600981018054600181018255600091825260209091200180546001600160a01b03191633179055611274565b8260ff166001141561124057600881018054600181018255600091825260209091200180546001600160a01b03191633179055611274565b8260ff166002141561127457600a81018054600181018255600091825260209091200180546001600160a01b031916331790555b505060ff16919050565b6000610bd082612ba2565b6000803390506112aa84828560405180602001604052806000815250612b76565b949350505050565b6000803390506111bb87828888888080601f0160208091040260200160405190810160405280939291908181526020018383808284376000920191909152508a9250612760915050565b60095460009080611311575050600854919050565b60006009611320600184614b22565b8154811061133057611330614b39565b60009182526020918290206040805180820190915291015463ffffffff8116808352600160201b9091046001600160e01b0316928201929092529150841061138657602001516001600160e01b03169392505050565b6112aa600985612d0a565b600080604051806101a0016040528060008152602001868152602001848152602001858152602001336001600160a01b03168152602001600081526020014381526020016113dd610bd6565b6113e79043614b0a565b81526020016000604051908082528060200260200182016040528015611417578160200160208202803683370190505b5081526020016000604051908082528060200260200182016040528015611448578160200160208202803683370190505b5081526020016000604051908082528060200260200182016040528015611479578160200160208202803683370190505b508152600060208083018290526040928301829052600c548252600d815291902082518155828201518051939450849391926114bd92600185019290910190613aab565b50604082015180516114d9916002840191602090910190613aab565b50606082015180516114f5916003840191602090910190613aab565b5060808201516004820180546001600160a01b0319166001600160a01b0390921691909117905560a0820151600582015560c0820151600682015560e082015160078201556101008201518051611556916008840191602090910190613b2b565b506101208201518051611573916009840191602090910190613b2b565b50610140820151805161159091600a840191602090910190613b2b565b50610160820151600b90910180546101809093015115156101000261ff00199215159290921661ffff1990931692909217179055600c80549060006115d483614b4f565b91905055506115e5888888866116cf565b98975050505050505050565b6115f96109b6565b6001600160a01b0316336001600160a01b0316146116295760405162461bcd60e51b8152600401610d1190614938565b306116326109b6565b6001600160a01b0316146116745760008036604051611652929190614928565b604051809103902090505b8061166860026128c2565b146116725761165d565b505b610d6e81612dbc565b6000803390506116c586828787878080601f016020809104026020016040519081016040528093929190818152602001838380828437600092019190915250612b7692505050565b9695505050505050565b60006116d9611b08565b6116e8336108f1600143614b22565b10156117505760405162461bcd60e51b815260206004820152603160248201527f476f7665726e6f723a2070726f706f73657220766f7465732062656c6f7720706044820152701c9bdc1bdcd85b081d1a1c995cda1bdb19607a1b6064820152608401610d11565b60006117658686868680519060200120611c56565b905084518651146117885760405162461bcd60e51b8152600401610d1190614b6a565b83518651146117a95760405162461bcd60e51b8152600401610d1190614b6a565b60008651116117fa5760405162461bcd60e51b815260206004820152601860248201527f476f7665726e6f723a20656d7074792070726f706f73616c00000000000000006044820152606401610d11565b600081815260016020908152604091829020825191820190925281546001600160401b0316908190521561187a5760405162461bcd60e51b815260206004820152602160248201527f476f7665726e6f723a2070726f706f73616c20616c72656164792065786973746044820152607360f81b6064820152608401610d11565b600061188c611887611145565b612dfd565b61189543612dfd565b61189f9190614bab565b905060006118ae611887610bd6565b6118b89083614bab565b835467ffffffffffffffff19166001600160401b038416178455905060018301805467ffffffffffffffff19166001600160401b0383161790557f7d84a6263ae0d98d3329bd7b46bb4e8d6f98cd35a7adb45c274c8b7fd5ebd5e084338b8b8d516001600160401b0381111561193057611930613d77565b60405190808252806020026020018201604052801561196357816020015b606081526020019060019003908161194e5790505b508c88888e60405161197d99989796959493929190614bd6565b60405180910390a15091979650505050505050565b600061199f848484612e65565b90505b9392505050565b600954600090156119cc576119be600961262c565b6001600160e01b0316905090565b5060085490565b6119db6109b6565b6001600160a01b0316336001600160a01b031614611a0b5760405162461bcd60e51b8152600401610d1190614938565b30611a146109b6565b6001600160a01b031614611a565760008036604051611a34929190614928565b604051809103902090505b80611a4a60026128c2565b14611a5457611a3f565b505b610d6e81612f0a565b600a546000828152600b602052604080822054905163d45c443560e01b81526004810191909152909182916001600160a01b039091169063d45c44359060240160206040518083038186803b158015611ab757600080fd5b505afa158015611acb573d6000803e3d6000fd5b505050506040513d601f19601f82011682018060405250810190611aef91906149b0565b905080600114611aff57806119a2565b60009392505050565b60006109ca60065490565b60008181526001602081815260408084208151928301909152909101546001600160401b031690819052611136565b611b4a6109b6565b6001600160a01b0316336001600160a01b031614611b7a5760405162461bcd60e51b8152600401610d1190614938565b30611b836109b6565b6001600160a01b031614611bc55760008036604051611ba3929190614928565b604051809103902090505b80611bb960026128c2565b14611bc357611bae565b505b600080856001600160a01b0316858585604051611be3929190614928565b60006040518083038185875af1925050503d8060008114611c20576040519150601f19603f3d011682016040523d82523d6000602084013e611c25565b606091505b5091509150611c4d8282604051806060016040528060288152602001614dd660289139612f73565b50505050505050565b600084848484604051602001611c6f9493929190614cc5565b60408051601f19818403018152919052805160209091012095945050505050565b611c98613b80565b600d6000838152602001908152602001600020604051806101a001604052908160008201548152602001600182018054611cd1906148f3565b80601f0160208091040260200160405190810160405280929190818152602001828054611cfd906148f3565b8015611d4a5780601f10611d1f57610100808354040283529160200191611d4a565b820191906000526020600020905b815481529060010190602001808311611d2d57829003601f168201915b50505050508152602001600282018054611d63906148f3565b80601f0160208091040260200160405190810160405280929190818152602001828054611d8f906148f3565b8015611ddc5780601f10611db157610100808354040283529160200191611ddc565b820191906000526020600020905b815481529060010190602001808311611dbf57829003601f168201915b50505050508152602001600382018054611df5906148f3565b80601f0160208091040260200160405190810160405280929190818152602001828054611e21906148f3565b8015611e6e5780601f10611e4357610100808354040283529160200191611e6e565b820191906000526020600020905b815481529060010190602001808311611e5157829003601f168201915b505050505081526020016004820160009054906101000a90046001600160a01b03166001600160a01b03166001600160a01b0316815260200160058201548152602001600682015481526020016007820154815260200160088201805480602002602001604051908101604052809291908181526020018280548015611f1d57602002820191906000526020600020905b81546001600160a01b03168152600190910190602001808311611eff575b5050505050815260200160098201805480602002602001604051908101604052809291908181526020018280548015611f7f57602002820191906000526020600020905b81546001600160a01b03168152600190910190602001808311611f61575b50505050508152602001600a8201805480602002602001604051908101604052809291908181526020018280548015611fe157602002820191906000526020600020905b81546001600160a01b03168152600190910190602001808311611fc3575b5050509183525050600b919091015460ff8082161515602084015261010090910416151560409091015292915050565b60606000600c546001600160401b0381111561202f5761202f613d77565b60405190808252806020026020018201604052801561206857816020015b612055613b80565b81526020019060019003908161204d5790505b50905060005b600c5481101561241d57600d6000828152602001908152602001600020604051806101a0016040529081600082015481526020016001820180546120b1906148f3565b80601f01602080910402602001604051908101604052809291908181526020018280546120dd906148f3565b801561212a5780601f106120ff5761010080835404028352916020019161212a565b820191906000526020600020905b81548152906001019060200180831161210d57829003601f168201915b50505050508152602001600282018054612143906148f3565b80601f016020809104026020016040519081016040528092919081815260200182805461216f906148f3565b80156121bc5780601f10612191576101008083540402835291602001916121bc565b820191906000526020600020905b81548152906001019060200180831161219f57829003601f168201915b505050505081526020016003820180546121d5906148f3565b80601f0160208091040260200160405190810160405280929190818152602001828054612201906148f3565b801561224e5780601f106122235761010080835404028352916020019161224e565b820191906000526020600020905b81548152906001019060200180831161223157829003601f168201915b505050505081526020016004820160009054906101000a90046001600160a01b03166001600160a01b03166001600160a01b03168152602001600582015481526020016006820154815260200160078201548152602001600882018054806020026020016040519081016040528092919081815260200182805480156122fd57602002820191906000526020600020905b81546001600160a01b031681526001909101906020018083116122df575b505050505081526020016009820180548060200260200160405190810160405280929190818152602001828054801561235f57602002820191906000526020600020905b81546001600160a01b03168152600190910190602001808311612341575b50505050508152602001600a82018054806020026020016040519081016040528092919081815260200182805480156123c157602002820191906000526020600020905b81546001600160a01b031681526001909101906020018083116123a3575b5050509183525050600b919091015460ff8082161515602084015261010090910416151560409091015282518390839081106123ff576123ff614b39565b6020026020010181905250808061241590614b4f565b91505061206e565b50919050565b61242b6109b6565b6001600160a01b0316336001600160a01b03161461245b5760405162461bcd60e51b8152600401610d1190614938565b306124646109b6565b6001600160a01b0316146124a65760008036604051612484929190614928565b604051809103902090505b8061249a60026128c2565b146124a45761248f565b505b610d6e81612f8c565b60006119a2838361302d565b6124c36109b6565b6001600160a01b0316336001600160a01b0316146124f35760405162461bcd60e51b8152600401610d1190614938565b306124fc6109b6565b6001600160a01b03161461253e576000803660405161251c929190614928565b604051809103902090505b8061253260026128c2565b1461253c57612527565b505b610d6e8161304e565b6000610bd08261308f565b6000858152600d60205260408120600b8101805461ff00191661010017905561257e8787878787613148565b509495945050505050565b60006001600160e01b038211156125f25760405162461bcd60e51b815260206004820152602760248201527f53616665436173743a2076616c756520646f65736e27742066697420696e20326044820152663234206269747360c81b6064820152608401610d11565b5090565b600080612614846126064361266a565b61260f86612589565b6131bc565b6001600160e01b0391821693501690505b9250929050565b80546000908015611aff5761265483612646600184614b22565b600091825260209091200190565b54600160201b90046001600160e01b03166119a2565b600063ffffffff8211156125f25760405162461bcd60e51b815260206004820152602660248201527f53616665436173743a2076616c756520646f65736e27742066697420696e203360448201526532206269747360d01b6064820152608401610d11565b60006001600160e01b03198216636e665ced60e01b1480610bd05750610bd082613366565b6000610bd06127016133d1565b8360405161190160f01b6020820152602281018390526042810182905260009060620160405160208183030381529060405280519060200120905092915050565b6000806000612753878787876134f8565b91509150611104816135bc565b600085815260016020819052604082209061277a8861127e565b600781111561278b5761278b6141df565b146127e45760405162461bcd60e51b815260206004820152602360248201527f476f7665726e6f723a20766f7465206e6f742063757272656e746c792061637460448201526269766560e81b6064820152608401610d11565b604080516020810190915281546001600160401b03169081905260009061280d90889086612e65565b905061281c888888848861370a565b835161286e57866001600160a01b03167fb8e138887d0aa13bab447e82de9d5c1777041ecd21ca36ba824ff1e6c07ddda4898884896040516128619493929190614d10565b60405180910390a26111bb565b866001600160a01b03167fe2babfbac5889a709b63bb7f598b324e08bc5a4fb9ec647fb3cbc9ec07eb871289888489896040516128af959493929190614d38565b60405180910390a2979650505050505050565b60006128dd8254600f81810b600160801b909204900b131590565b156128fb57604051631ed9509560e11b815260040160405180910390fd5b508054600f0b6000818152600180840160205260408220805492905583546fffffffffffffffffffffffffffffffff191692016001600160801b03169190911790915590565b60648111156129c45760405162461bcd60e51b815260206004820152604360248201527f476f7665726e6f72566f74657351756f72756d4672616374696f6e3a2071756f60448201527f72756d4e756d657261746f72206f7665722071756f72756d44656e6f6d696e616064820152623a37b960e91b608482015260a401610d11565b60006129ce6119a9565b905080158015906129df5750600954155b15612a4357604080518082019091526000815260099060208101612a0284612589565b6001600160e01b039081169091528254600181018455600093845260209384902083519490930151909116600160201b0263ffffffff909316929092179101555b612a4e6009836125f6565b505060408051828152602081018490527f0553476bf02ef2726e8ce5ced78d63e26e602e4a2257b1f559418e24b4633997910160405180910390a15050565b30612a966109b6565b6001600160a01b031614612b295760005b8451811015612b2757306001600160a01b0316858281518110612acc57612acc614b39565b60200260200101516001600160a01b03161415612b1757612b17838281518110612af857612af8614b39565b602002602001015180519060200120600261388990919063ffffffff16565b612b2081614b4f565b9050612aa7565b505b5050505050565b612b298585858585613148565b30612b466109b6565b6001600160a01b031614612b2957600254600f81810b600160801b909204900b1315612b29576000600255612b29565b6000612b9985858585612b9460408051602081019091526000815290565b612760565b95945050505050565b600080612bae836138c5565b90506004816007811115612bc457612bc46141df565b14612bcf5792915050565b6000838152600b602052604090205480612bea575092915050565b600a54604051632ab0f52960e01b8152600481018390526001600160a01b0390911690632ab0f5299060240160206040518083038186803b158015612c2e57600080fd5b505afa158015612c42573d6000803e3d6000fd5b505050506040513d601f19601f82011682018060405250810190612c669190614d72565b15612c75575060079392505050565b600a54604051632c258a9f60e11b8152600481018390526001600160a01b039091169063584b153e9060240160206040518083038186803b158015612cb957600080fd5b505afa158015612ccd573d6000803e3d6000fd5b505050506040513d601f19601f82011682018060405250810190612cf19190614d72565b15612d00575060059392505050565b5060029392505050565b6000438210612d5b5760405162461bcd60e51b815260206004820181905260248201527f436865636b706f696e74733a20626c6f636b206e6f7420796574206d696e65646044820152606401610d11565b6000612d668361266a565b84549091506000612d79868483856139d1565b90508015612da657612d9086612646600184614b22565b54600160201b90046001600160e01b0316612da9565b60005b6001600160e01b03169695505050505050565b60045460408051918252602082018390527fc565b045403dc03c2eea82b81a0465edad9e2e7fc4d97e11421c209da93d7a93910160405180910390a1600455565b60006001600160401b038211156125f25760405162461bcd60e51b815260206004820152602660248201527f53616665436173743a2076616c756520646f65736e27742066697420696e203660448201526534206269747360d01b6064820152608401610d11565b604051630748d63560e31b81526001600160a01b038481166004830152602482018490526000917f000000000000000000000000000000000000000000000000000000000000000090911690633a46b1a89060440160206040518083038186803b158015612ed257600080fd5b505afa158015612ee6573d6000803e3d6000fd5b505050506040513d601f19601f8201168201806040525081019061199f91906149b0565b600a54604080516001600160a01b03928316815291831660208301527f08f74ea46ef7894f65eabfb5e6e695de773a000b47c529ab559178069b226401910160405180910390a1600a80546001600160a01b0319166001600160a01b0392909216919091179055565b60608315612f825750816119a2565b6119a28383613a2f565b60008111612fec5760405162461bcd60e51b815260206004820152602760248201527f476f7665726e6f7253657474696e67733a20766f74696e6720706572696f6420604482015266746f6f206c6f7760c81b6064820152608401610d11565b60055460408051918252602082018390527f7e3f7f0708a84de9203036abaa450dccc85ad5ff52f78c170f3edb55cf5e8828910160405180910390a1600555565b60006119a2838361304960408051602081019091526000815290565b612e65565b60065460408051918252602082018390527fccb45da8d5717e6c4544694297c4ba5cf151d455c9bb0ed4fc7a38411bc05461910160405180910390a1600655565b6000606461309c836112fc565b604051632394e7a360e21b8152600481018590527f00000000000000000000000000000000000000000000000000000000000000006001600160a01b031690638e539e8c9060240160206040518083038186803b1580156130fc57600080fd5b505afa158015613110573d6000803e3d6000fd5b505050506040513d601f19601f8201168201806040525081019061313491906149b0565b61313e9190614d94565b610bd09190614db3565b600a5460405163e38335e560e01b81526001600160a01b039091169063e38335e5903490613183908890889088906000908990600401614a4e565b6000604051808303818588803b15801561319c57600080fd5b505af11580156131b0573d6000803e3d6000fd5b50505050505050505050565b8254600090819080156133095760006131da87612646600185614b22565b60408051808201909152905463ffffffff808216808452600160201b9092046001600160e01b03166020840152919250908716101561325b5760405162461bcd60e51b815260206004820152601760248201527f436865636b706f696e743a20696e76616c6964206b65790000000000000000006044820152606401610d11565b8563ffffffff16816000015163ffffffff1614156132aa578461328388612646600186614b22565b80546001600160e01b0392909216600160201b0263ffffffff9092169190911790556132f9565b6040805180820190915263ffffffff80881682526001600160e01b0380881660208085019182528b54600181018d5560008d81529190912094519151909216600160201b029216919091179101555b60200151925083915061335e9050565b50506040805180820190915263ffffffff80851682526001600160e01b0380851660208085019182528854600181018a5560008a815291822095519251909316600160201b0291909316179201919091559050815b935093915050565b60006001600160e01b0319821663bf26d89760e01b148061339757506001600160e01b031982166379dd796f60e01b145b806133b257506001600160e01b03198216630271189760e51b145b80610bd057506301ffc9a760e01b6001600160e01b0319831614610bd0565b6000306001600160a01b037f00000000000000000000000000000000000000000000000000000000000000001614801561342a57507f000000000000000000000000000000000000000000000000000000000000000046145b1561345457507f000000000000000000000000000000000000000000000000000000000000000090565b50604080517f00000000000000000000000000000000000000000000000000000000000000006020808301919091527f0000000000000000000000000000000000000000000000000000000000000000828401527f000000000000000000000000000000000000000000000000000000000000000060608301524660808301523060a0808401919091528351808403909101815260c0909201909252805191012090565b6000807f7fffffffffffffffffffffffffffffff5d576e7357a4501ddfe92f46681b20a083111561352f57506000905060036135b3565b6040805160008082526020820180845289905260ff881692820192909252606081018690526080810185905260019060a0016020604051602081039080840390855afa158015613583573d6000803e3d6000fd5b5050604051601f1901519150506001600160a01b0381166135ac576000600192509250506135b3565b9150600090505b94509492505050565b60008160048111156135d0576135d06141df565b14156135d95750565b60018160048111156135ed576135ed6141df565b141561363b5760405162461bcd60e51b815260206004820152601860248201527f45434453413a20696e76616c6964207369676e617475726500000000000000006044820152606401610d11565b600281600481111561364f5761364f6141df565b141561369d5760405162461bcd60e51b815260206004820152601f60248201527f45434453413a20696e76616c6964207369676e6174757265206c656e677468006044820152606401610d11565b60038160048111156136b1576136b16141df565b1415610d6e5760405162461bcd60e51b815260206004820152602260248201527f45434453413a20696e76616c6964207369676e6174757265202773272076616c604482015261756560f01b6064820152608401610d11565b60008581526007602090815260408083206001600160a01b0388168452600381019092529091205460ff16156137925760405162461bcd60e51b815260206004820152602760248201527f476f7665726e6f72566f74696e6753696d706c653a20766f746520616c726561604482015266191e4818d85cdd60ca1b6064820152608401610d11565b6001600160a01b03851660009081526003820160205260408120805460ff1916600117905560ff168460ff1614156137e357828160000160008282546137d89190614b0a565b90915550612b279050565b60ff84166001141561380357828160010160008282546137d89190614b0a565b60ff84166002141561382357828160020160008282546137d89190614b0a565b60405162461bcd60e51b815260206004820152603560248201527f476f7665726e6f72566f74696e6753696d706c653a20696e76616c69642076616044820152746c756520666f7220656e756d20566f74655479706560581b6064820152608401610d11565b8154600160801b90819004600f0b6000818152600180860160205260409091209390935583546001600160801b03908116939091011602179055565b6000818152600160205260408120600281015460ff16156138e95750600792915050565b6002810154610100900460ff16156139045750600292915050565b600061390f8461110e565b90508061395e5760405162461bcd60e51b815260206004820152601d60248201527f476f7665726e6f723a20756e6b6e6f776e2070726f706f73616c2069640000006044820152606401610d11565b43811061396f575060009392505050565b600061397a85611b13565b905043811061398e57506001949350505050565b61399785613a59565b80156139b6575060008581526007602052604090208054600190910154115b156139c657506004949350505050565b506003949350505050565b60005b81831015613a275760006139e88484613a90565b60008781526020902090915063ffffffff86169082015463ffffffff161115613a1357809250613a21565b613a1e816001614b0a565b93505b506139d4565b509392505050565b815115613a3f5781518083602001fd5b8060405162461bcd60e51b8152600401610d119190613ed2565b600081815260076020526040812060028101546001820154613a7b9190614b0a565b613a8761095d8561110e565b11159392505050565b6000613a9f6002848418614db3565b6119a290848416614b0a565b828054613ab7906148f3565b90600052602060002090601f016020900481019282613ad95760008555613b1f565b82601f10613af257805160ff1916838001178555613b1f565b82800160010185558215613b1f579182015b82811115613b1f578251825591602001919060010190613b04565b506125f2929150613bf5565b828054828255906000526020600020908101928215613b1f579160200282015b82811115613b1f57825182546001600160a01b0319166001600160a01b03909116178255602090920191600190910190613b4b565b604051806101a001604052806000815260200160608152602001606081526020016060815260200160006001600160a01b031681526020016000815260200160008152602001600081526020016060815260200160608152602001606081526020016000151581526020016000151581525090565b5b808211156125f25760008155600101613bf6565b600060208284031215613c1c57600080fd5b5035919050565b6000815180845260005b81811015613c4957602081850181015186830182015201613c2d565b81811115613c5b576000602083870101525b50601f01601f19169290920160200192915050565b60006101408c8352806020840152613c8a8184018d613c23565b90508281036040840152613c9e818c613c23565b90508281036060840152613cb2818b613c23565b6001600160a01b03999099166080840152505060a081019590955260c085019390935260e08401919091521515610100830152151561012090910152949350505050565b600060208284031215613d0857600080fd5b81356001600160e01b0319811681146119a257600080fd5b803560ff81168114613d3157600080fd5b919050565b60008083601f840112613d4857600080fd5b5081356001600160401b03811115613d5f57600080fd5b60208301915083602082850101111561262557600080fd5b634e487b7160e01b600052604160045260246000fd5b604051601f8201601f191681016001600160401b0381118282101715613db557613db5613d77565b604052919050565b600082601f830112613dce57600080fd5b81356001600160401b03811115613de757613de7613d77565b613dfa601f8201601f1916602001613d8d565b818152846020838601011115613e0f57600080fd5b816020850160208301376000918101602001919091529392505050565b60008060008060008060008060e0898b031215613e4857600080fd5b88359750613e5860208a01613d20565b965060408901356001600160401b0380821115613e7457600080fd5b613e808c838d01613d36565b909850965060608b0135915080821115613e9957600080fd5b50613ea68b828c01613dbd565b945050613eb560808a01613d20565b925060a0890135915060c089013590509295985092959890939650565b6020815260006119a26020830184613c23565b6001600160a01b0381168114610d6e57600080fd5b60008060008060808587031215613f1057600080fd5b8435613f1b81613ee5565b93506020850135613f2b81613ee5565b92506040850135915060608501356001600160401b03811115613f4d57600080fd5b613f5987828801613dbd565b91505092959194509250565b60006001600160401b03821115613f7e57613f7e613d77565b5060051b60200190565b600082601f830112613f9957600080fd5b81356020613fae613fa983613f65565b613d8d565b82815260059290921b84018101918181019086841115613fcd57600080fd5b8286015b84811015613ff1578035613fe481613ee5565b8352918301918301613fd1565b509695505050505050565b600082601f83011261400d57600080fd5b8135602061401d613fa983613f65565b82815260059290921b8401810191818101908684111561403c57600080fd5b8286015b84811015613ff15780358352918301918301614040565b600082601f83011261406857600080fd5b81356020614078613fa983613f65565b82815260059290921b8401810191818101908684111561409757600080fd5b8286015b84811015613ff15780356001600160401b038111156140ba5760008081fd5b6140c88986838b0101613dbd565b84525091830191830161409b565b600080600080608085870312156140ec57600080fd5b84356001600160401b038082111561410357600080fd5b61410f88838901613f88565b9550602087013591508082111561412557600080fd5b61413188838901613ffc565b9450604087013591508082111561414757600080fd5b5061415487828801614057565b949793965093946060013593505050565b600080600080600060a0868803121561417d57600080fd5b8535945061418d60208701613d20565b935061419b60408701613d20565b94979396509394606081013594506080013592915050565b600080604083850312156141c657600080fd5b823591506141d660208401613d20565b90509250929050565b634e487b7160e01b600052602160045260246000fd5b602081016008831061421757634e487b7160e01b600052602160045260246000fd5b91905290565b6000806040838503121561423057600080fd5b82359150602083013561424281613ee5565b809150509250929050565b60008060008060006080868803121561426557600080fd5b8535945061427560208701613d20565b935060408601356001600160401b038082111561429157600080fd5b61429d89838a01613d36565b909550935060608801359150808211156142b657600080fd5b506142c388828901613dbd565b9150509295509295909350565b60008060008060008060c087890312156142e957600080fd5b86356001600160401b038082111561430057600080fd5b61430c8a838b01613f88565b9750602089013591508082111561432257600080fd5b61432e8a838b01613ffc565b9650604089013591508082111561434457600080fd5b6143508a838b01614057565b9550606089013591508082111561436657600080fd5b6143728a838b01613dbd565b9450608089013591508082111561438857600080fd5b6143948a838b01613dbd565b935060a08901359150808211156143aa57600080fd5b506143b789828a01613dbd565b9150509295509295509295565b600080600080606085870312156143da57600080fd5b843593506143ea60208601613d20565b925060408501356001600160401b0381111561440557600080fd5b61441187828801613d36565b95989497509550505050565b6000806000806080858703121561443357600080fd5b84356001600160401b038082111561444a57600080fd5b61445688838901613f88565b9550602087013591508082111561446c57600080fd5b61447888838901613ffc565b9450604087013591508082111561448e57600080fd5b61449a88838901614057565b935060608701359150808211156144b057600080fd5b50613f5987828801613dbd565b6000806000606084860312156144d257600080fd5b83356144dd81613ee5565b92506020840135915060408401356001600160401b038111156144ff57600080fd5b61450b86828701613dbd565b9150509250925092565b60006020828403121561452757600080fd5b81356119a281613ee5565b600080600080600060a0868803121561454a57600080fd5b853561455581613ee5565b9450602086013561456581613ee5565b935060408601356001600160401b038082111561458157600080fd5b61458d89838a01613ffc565b945060608801359150808211156145a357600080fd5b6145af89838a01613ffc565b935060808801359150808211156142b657600080fd5b600080600080606085870312156145db57600080fd5b84356145e681613ee5565b93506020850135925060408501356001600160401b0381111561440557600080fd5b600081518084526020808501945080840160005b8381101561257e5781516001600160a01b03168752958201959082019060010161461c565b60006101a082518452602083015181602086015261466182860182613c23565b9150506040830151848203604086015261467b8282613c23565b915050606083015184820360608601526146958282613c23565b91505060808301516146b260808601826001600160a01b03169052565b5060a083015160a085015260c083015160c085015260e083015160e085015261010080840151858303828701526146e98382614608565b9250505061012080840151858303828701526147058382614608565b9250505061014080840151858303828701526147218382614608565b92505050610160808401516147398287018215159052565b50506101809283015115159390920192909252919050565b6020815260006119a26020830184614641565b6000602080830181845280855180835260408601915060408160051b870101925083870160005b828110156147b957603f198886030184526147a7858351614641565b9450928501929085019060010161478b565b5092979650505050505050565b600080604083850312156147d957600080fd5b82356147e481613ee5565b946020939093013593505050565b600080600080600060a0868803121561480a57600080fd5b853561481581613ee5565b9450602086013561482581613ee5565b9350604086013592506060860135915060808601356001600160401b0381111561484e57600080fd5b6142c388828901613dbd565b600080600080600060a0868803121561487257600080fd5b8535945060208601356001600160401b038082111561489057600080fd5b61489c89838a01613f88565b955060408801359150808211156148b257600080fd5b6148be89838a01613ffc565b945060608801359150808211156148d457600080fd5b506148e188828901614057565b95989497509295608001359392505050565b600181811c9082168061490757607f821691505b6020821081141561241d57634e487b7160e01b600052602260045260246000fd5b8183823760009101908152919050565b60208082526018908201527f476f7665726e6f723a206f6e6c79476f7665726e616e63650000000000000000604082015260600190565b60208082526021908201527f476f7665726e6f723a2070726f706f73616c206e6f74207375636365737366756040820152601b60fa1b606082015260800190565b6000602082840312156149c257600080fd5b5051919050565b600081518084526020808501945080840160005b8381101561257e578151875295820195908201906001016149dd565b600081518084526020808501808196508360051b8101915082860160005b85811015614a41578284038952614a2f848351613c23565b98850198935090840190600101614a17565b5091979650505050505050565b60a081526000614a6160a0830188614608565b8281036020840152614a7381886149c9565b90508281036040840152614a8781876149f9565b60608401959095525050608001529392505050565b60c081526000614aaf60c0830189614608565b8281036020840152614ac181896149c9565b90508281036040840152614ad581886149f9565b60608401969096525050608081019290925260a0909101529392505050565b634e487b7160e01b600052601160045260246000fd5b60008219821115614b1d57614b1d614af4565b500190565b600082821015614b3457614b34614af4565b500390565b634e487b7160e01b600052603260045260246000fd5b6000600019821415614b6357614b63614af4565b5060010190565b60208082526021908201527f476f7665726e6f723a20696e76616c69642070726f706f73616c206c656e67746040820152600d60fb1b606082015260800190565b60006001600160401b03808316818516808303821115614bcd57614bcd614af4565b01949350505050565b60006101208b8352602060018060a01b038c1681850152816040850152614bff8285018c614608565b91508382036060850152614c13828b6149c9565b915083820360808501528189518084528284019150828160051b850101838c0160005b83811015614c6457601f19878403018552614c52838351613c23565b94860194925090850190600101614c36565b505086810360a0880152614c78818c6149f9565b945050505050614c9360c08401876001600160401b03169052565b6001600160401b03851660e0840152828103610100840152614cb58185613c23565b9c9b505050505050505050505050565b608081526000614cd86080830187614608565b8281036020840152614cea81876149c9565b90508281036040840152614cfe81866149f9565b91505082606083015295945050505050565b84815260ff841660208201528260408201526080606082015260006116c56080830184613c23565b85815260ff8516602082015283604082015260a060608201526000614d6060a0830185613c23565b82810360808401526115e58185613c23565b600060208284031215614d8457600080fd5b815180151581146119a257600080fd5b6000816000190483118215151615614dae57614dae614af4565b500290565b600082614dd057634e487b7160e01b600052601260045260246000fd5b50049056fe476f7665726e6f723a2072656c617920726576657274656420776974686f7574206d657373616765a26469706673582212202235d751dfc5434a6e13623eabc17bd62631642eedebdf61c36bffadf0c9a65464736f6c63430008090033",
  "linkReferences": {},
  "deployedLinkReferences": {}
}