{
  "contractName": "Donation",
  "abi": [
    {
      "inputs": [],
      "stateMutability": "nonpayable",
      "type": "constructor"
    },
    {
      "inputs": [
        {
          "internalType": "address",
          "name": "",
          "type": "address"
        }
      ],
      "name": "addressToFunded",
      "outputs": [
        {
          "internalType": "uint256",
          "name": "",
          "type": "uint256"
        }
      ],
      "stateMutability": "view",
      "type": "function"
    },
    {
      "inputs": [
        {
          "internalType": "uint256",
          "name": "",
          "type": "uint256"
        }
      ],
      "name": "funders",
      "outputs": [
        {
          "internalType": "address",
          "name": "",
          "type": "address"
        }
      ],
      "stateMutability": "view",
      "type": "function"
    },
    {
      "inputs": [],
      "name": "owner",
      "outputs": [
        {
          "internalType": "address",
          "name": "",
          "type": "address"
        }
      ],
      "stateMutability": "view",
      "type": "function"
    },
    {
      "inputs": [],
      "name": "priceFeedAddress",
      "outputs": [
        {
          "internalType": "address",
          "name": "",
          "type": "address"
        }
      ],
      "stateMutability": "view",
      "type": "function"
    },
    {
      "inputs": [
        {
          "internalType": "address payable",
          "name": "recipient",
          "type": "address"
        }
      ],
      "name": "transferFunds",
      "outputs": [],
      "stateMutability": "payable",
      "type": "function"
    },
    {
      "inputs": [],
      "name": "balance",
      "outputs": [
        {
          "internalType": "uint256",
          "name": "",
          "type": "uint256"
        }
      ],
      "stateMutability": "view",
      "type": "function"
    },
    {
      "inputs": [],
      "name": "getPriceData",
      "outputs": [
        {
          "internalType": "uint256",
          "name": "",
          "type": "uint256"
        }
      ],
      "stateMutability": "view",
      "type": "function"
    },
    {
      "inputs": [],
      "name": "getVersion",
      "outputs": [
        {
          "internalType": "uint256",
          "name": "",
          "type": "uint256"
        }
      ],
      "stateMutability": "view",
      "type": "function"
    },
    {
      "inputs": [
        {
          "internalType": "uint256",
          "name": "seiAmount",
          "type": "uint256"
        }
      ],
      "name": "convertSEIToUSD",
      "outputs": [
        {
          "internalType": "uint256",
          "name": "",
          "type": "uint256"
        }
      ],
      "stateMutability": "view",
      "type": "function"
    },
    {
      "inputs": [
        {
          "internalType": "uint256",
          "name": "usdAmount",
          "type": "uint256"
        }
      ],
      "name": "convertUSDToSEI",
      "outputs": [
        {
          "internalType": "uint256",
          "name": "",
          "type": "uint256"
        }
      ],
      "stateMutability": "view",
      "type": "function"
    },
    {
      "inputs": [],
      "name": "withdraw",
      "outputs": [],
      "stateMutability": "payable",
      "type": "function"
    },
    {
      "inputs": [
        {
          "internalType": "int256",
          "name": "_newPrice",
          "type": "int256"
        }
      ],
      "name": "updatePriceFeed",
      "outputs": [],
      "stateMutability": "nonpayable",
      "type": "function"
    }
  ],
  "bytecode": "0x608060405234801562000010575f80fd5b505f6302faf0806008600160405162000029906200011b565b620000379392919062000271565b604051809103905ff08015801562000051573d5f803e3d5ffd5b5090508060035f6101000a81548173ffffffffffffffffffffffffffffffffffffffff021916908373ffffffffffffffffffffffffffffffffffffffff1602179055508060045f6101000a81548173ffffffffffffffffffffffffffffffffffffffff021916908373ffffffffffffffffffffffffffffffffffffffff1602179055503360015f6101000a81548173ffffffffffffffffffffffffffffffffffffffff021916908373ffffffffffffffffffffffffffffffffffffffff16021790555050620002c1565b610b54806200125483390190565b5f819050919050565b5f819050919050565b5f819050919050565b5f620001646200015e620001588462000129565b6200013b565b62000132565b9050919050565b620001768162000144565b82525050565b5f819050919050565b5f60ff82169050919050565b5f620001b1620001ab620001a5846200017c565b6200013b565b62000185565b9050919050565b620001c38162000191565b82525050565b5f82825260208201905092915050565b7f534549202f2055534400000000000000000000000000000000000000000000005f82015250565b5f6200020f600983620001c9565b91506200021c82620001d9565b602082019050919050565b5f819050919050565b5f819050919050565b5f62000259620002536200024d8462000227565b6200013b565b62000230565b9050919050565b6200026b8162000239565b82525050565b5f608082019050620002865f8301866200016b565b620002956020830185620001b8565b8181036040830152620002a88162000201565b9050620002b9606083018462000260565b949350505050565b610f8580620002cf5f395ff3fe6080604052600436106100a6575f3560e01c8063b69ef8a811610063578063b69ef8a8146101aa578063dc0d3dff146101d4578063e0abca0b14610210578063e39ff19f1461023a578063f56bfa2414610256578063faf4acac1461027e576100a6565b8063012f22ed146100aa5780630d8e6e2c146100e65780633ccfd60b146101105780633edf6e321461011a5780638da5cb5b14610156578063a4a2816814610180575b5f80fd5b3480156100b5575f80fd5b506100d060048036038101906100cb91906109cd565b6102ba565b6040516100dd9190610a07565b60405180910390f35b3480156100f1575f80fd5b506100fa6102f2565b6040516101079190610a07565b60405180910390f35b610118610386565b005b348015610125575f80fd5b50610140600480360381019061013b91906109cd565b61055e565b60405161014d9190610a07565b60405180910390f35b348015610161575f80fd5b5061016a610596565b6040516101779190610a5f565b60405180910390f35b34801561018b575f80fd5b506101946105bb565b6040516101a19190610a07565b60405180910390f35b3480156101b5575f80fd5b506101be610667565b6040516101cb9190610a07565b60405180910390f35b3480156101df575f80fd5b506101fa60048036038101906101f591906109cd565b61066e565b6040516102079190610a5f565b60405180910390f35b34801561021b575f80fd5b506102246106a9565b6040516102319190610a5f565b60405180910390f35b610254600480360381019061024f9190610ab3565b6106ce565b005b348015610261575f80fd5b5061027c60048036038101906102779190610b11565b6107c7565b005b348015610289575f80fd5b506102a4600480360381019061029f9190610b66565b6108e0565b6040516102b19190610a07565b60405180910390f35b5f806102c46105bb565b90505f670de0b6b3a764000084836102dc9190610bbe565b6102e69190610c2c565b90508092505050919050565b5f60035f9054906101000a900473ffffffffffffffffffffffffffffffffffffffff1673ffffffffffffffffffffffffffffffffffffffff166354fd4d506040518163ffffffff1660e01b8152600401602060405180830381865afa15801561035d573d5f803e3d5ffd5b505050506040513d601f19601f820116820180604052508101906103819190610c70565b905090565b60015f9054906101000a900473ffffffffffffffffffffffffffffffffffffffff1673ffffffffffffffffffffffffffffffffffffffff163373ffffffffffffffffffffffffffffffffffffffff1614610415576040517f08c379a000000000000000000000000000000000000000000000000000000000815260040161040c90610cf5565b60405180910390fd5b3373ffffffffffffffffffffffffffffffffffffffff166108fc4790811502906040515f60405180830381858888f19350505050158015610458573d5f803e3d5ffd5b505f5b6002805490508110156104fc575f6002828154811061047d5761047c610d13565b5b905f5260205f20015f9054906101000a900473ffffffffffffffffffffffffffffffffffffffff1690505f805f8373ffffffffffffffffffffffffffffffffffffffff1673ffffffffffffffffffffffffffffffffffffffff1681526020019081526020015f20819055505080806104f490610d40565b91505061045b565b505f67ffffffffffffffff81111561051757610516610d87565b5b6040519080825280602002602001820160405280156105455781602001602082028036833780820191505090505b506002908051906020019061055b9291906108f4565b50565b5f806105686105bb565b90505f81670de0b6b3a7640000856105809190610bbe565b61058a9190610c2c565b90508092505050919050565b60015f9054906101000a900473ffffffffffffffffffffffffffffffffffffffff1681565b5f8060035f9054906101000a900473ffffffffffffffffffffffffffffffffffffffff1673ffffffffffffffffffffffffffffffffffffffff1663feaf968c6040518163ffffffff1660e01b815260040160a060405180830381865afa158015610627573d5f803e3d5ffd5b505050506040513d601f19601f8201168201806040525081019061064b9190610e07565b5050509150506305f5e100816106619190610e7e565b91505090565b5f47905090565b6002818154811061067d575f80fd5b905f5260205f20015f915054906101000a900473ffffffffffffffffffffffffffffffffffffffff1681565b60045f9054906101000a900473ffffffffffffffffffffffffffffffffffffffff1681565b345f803373ffffffffffffffffffffffffffffffffffffffff1673ffffffffffffffffffffffffffffffffffffffff1681526020019081526020015f205f8282546107199190610ef4565b92505081905550600233908060018154018082558091505060019003905f5260205f20015f9091909190916101000a81548173ffffffffffffffffffffffffffffffffffffffff021916908373ffffffffffffffffffffffffffffffffffffffff1602179055508073ffffffffffffffffffffffffffffffffffffffff166108fc4790811502906040515f60405180830381858888f193505050501580156107c3573d5f803e3d5ffd5b5050565b60015f9054906101000a900473ffffffffffffffffffffffffffffffffffffffff1673ffffffffffffffffffffffffffffffffffffffff163373ffffffffffffffffffffffffffffffffffffffff1614610856576040517f08c379a000000000000000000000000000000000000000000000000000000000815260040161084d90610cf5565b60405180910390fd5b60045f9054906101000a900473ffffffffffffffffffffffffffffffffffffffff1673ffffffffffffffffffffffffffffffffffffffff1663d4c19bda826040518263ffffffff1660e01b81526004016108b09190610f36565b5f604051808303815f87803b1580156108c7575f80fd5b505af11580156108d9573d5f803e3d5ffd5b5050505050565b5f602052805f5260405f205f915090505481565b828054828255905f5260205f2090810192821561096a579160200282015b82811115610969578251825f6101000a81548173ffffffffffffffffffffffffffffffffffffffff021916908373ffffffffffffffffffffffffffffffffffffffff16021790555091602001919060010190610912565b5b509050610977919061097b565b5090565b5b80821115610992575f815f90555060010161097c565b5090565b5f80fd5b5f819050919050565b6109ac8161099a565b81146109b6575f80fd5b50565b5f813590506109c7816109a3565b92915050565b5f602082840312156109e2576109e1610996565b5b5f6109ef848285016109b9565b91505092915050565b610a018161099a565b82525050565b5f602082019050610a1a5f8301846109f8565b92915050565b5f73ffffffffffffffffffffffffffffffffffffffff82169050919050565b5f610a4982610a20565b9050919050565b610a5981610a3f565b82525050565b5f602082019050610a725f830184610a50565b92915050565b5f610a8282610a20565b9050919050565b610a9281610a78565b8114610a9c575f80fd5b50565b5f81359050610aad81610a89565b92915050565b5f60208284031215610ac857610ac7610996565b5b5f610ad584828501610a9f565b91505092915050565b5f819050919050565b610af081610ade565b8114610afa575f80fd5b50565b5f81359050610b0b81610ae7565b92915050565b5f60208284031215610b2657610b25610996565b5b5f610b3384828501610afd565b91505092915050565b610b4581610a3f565b8114610b4f575f80fd5b50565b5f81359050610b6081610b3c565b92915050565b5f60208284031215610b7b57610b7a610996565b5b5f610b8884828501610b52565b91505092915050565b7f4e487b71000000000000000000000000000000000000000000000000000000005f52601160045260245ffd5b5f610bc88261099a565b9150610bd38361099a565b9250828202610be18161099a565b91508282048414831517610bf857610bf7610b91565b5b5092915050565b7f4e487b71000000000000000000000000000000000000000000000000000000005f52601260045260245ffd5b5f610c368261099a565b9150610c418361099a565b925082610c5157610c50610bff565b5b828204905092915050565b5f81519050610c6a816109a3565b92915050565b5f60208284031215610c8557610c84610996565b5b5f610c9284828501610c5c565b91505092915050565b5f82825260208201905092915050565b7f596f75277265206e6f742074686520636f6e7472616374206f776e65720000005f82015250565b5f610cdf601d83610c9b565b9150610cea82610cab565b602082019050919050565b5f6020820190508181035f830152610d0c81610cd3565b9050919050565b7f4e487b71000000000000000000000000000000000000000000000000000000005f52603260045260245ffd5b5f610d4a8261099a565b91507fffffffffffffffffffffffffffffffffffffffffffffffffffffffffffffffff8203610d7c57610d7b610b91565b5b600182019050919050565b7f4e487b71000000000000000000000000000000000000000000000000000000005f52604160045260245ffd5b5f69ffffffffffffffffffff82169050919050565b610dd281610db4565b8114610ddc575f80fd5b50565b5f81519050610ded81610dc9565b92915050565b5f81519050610e0181610ae7565b92915050565b5f805f805f60a08688031215610e2057610e1f610996565b5b5f610e2d88828901610ddf565b9550506020610e3e88828901610df3565b9450506040610e4f88828901610c5c565b9350506060610e6088828901610c5c565b9250506080610e7188828901610ddf565b9150509295509295909350565b5f610e8882610ade565b9150610e9383610ade565b9250828202610ea181610ade565b91507f800000000000000000000000000000000000000000000000000000000000000084145f84121615610ed857610ed7610b91565b5b8282058414831517610eed57610eec610b91565b5b5092915050565b5f610efe8261099a565b9150610f098361099a565b9250828201905080821115610f2157610f20610b91565b5b92915050565b610f3081610ade565b82525050565b5f602082019050610f495f830184610f27565b9291505056fea2646970667358221220691f06b794958fa5cd57bbca29c0e5aa875478dae1d7bd2b28610dca7d622f6e64736f6c63430008140033608060405234801562000010575f80fd5b5060405162000b5438038062000b548339818101604052810190620000369190620002a9565b835f819055508260015f6101000a81548160ff021916908360ff160217905550816002908162000067919062000565565b50806003819055505050505062000649565b5f604051905090565b5f80fd5b5f80fd5b5f819050919050565b6200009e816200008a565b8114620000a9575f80fd5b50565b5f81519050620000bc8162000093565b92915050565b5f60ff82169050919050565b620000d981620000c2565b8114620000e4575f80fd5b50565b5f81519050620000f781620000ce565b92915050565b5f80fd5b5f80fd5b5f601f19601f8301169050919050565b7f4e487b71000000000000000000000000000000000000000000000000000000005f52604160045260245ffd5b6200014d8262000105565b810181811067ffffffffffffffff821117156200016f576200016e62000115565b5b80604052505050565b5f6200018362000079565b905062000191828262000142565b919050565b5f67ffffffffffffffff821115620001b357620001b262000115565b5b620001be8262000105565b9050602081019050919050565b5f5b83811015620001ea578082015181840152602081019050620001cd565b5f8484015250505050565b5f6200020b620002058462000196565b62000178565b9050828152602081018484840111156200022a576200022962000101565b5b62000237848285620001cb565b509392505050565b5f82601f830112620002565762000255620000fd565b5b815162000268848260208601620001f5565b91505092915050565b5f819050919050565b620002858162000271565b811462000290575f80fd5b50565b5f81519050620002a3816200027a565b92915050565b5f805f8060808587031215620002c457620002c362000082565b5b5f620002d387828801620000ac565b9450506020620002e687828801620000e7565b935050604085015167ffffffffffffffff8111156200030a576200030962000086565b5b62000318878288016200023f565b92505060606200032b8782880162000293565b91505092959194509250565b5f81519050919050565b7f4e487b71000000000000000000000000000000000000000000000000000000005f52602260045260245ffd5b5f60028204905060018216806200038657607f821691505b6020821081036200039c576200039b62000341565b5b50919050565b5f819050815f5260205f209050919050565b5f6020601f8301049050919050565b5f82821b905092915050565b5f60088302620004007fffffffffffffffffffffffffffffffffffffffffffffffffffffffffffffffff82620003c3565b6200040c8683620003c3565b95508019841693508086168417925050509392505050565b5f819050919050565b5f6200044d62000447620004418462000271565b62000424565b62000271565b9050919050565b5f819050919050565b62000468836200042d565b62000480620004778262000454565b848454620003cf565b825550505050565b5f90565b6200049662000488565b620004a38184846200045d565b505050565b5b81811015620004ca57620004be5f826200048c565b600181019050620004a9565b5050565b601f8211156200051957620004e381620003a2565b620004ee84620003b4565b81016020851015620004fe578190505b620005166200050d85620003b4565b830182620004a8565b50505b505050565b5f82821c905092915050565b5f6200053b5f19846008026200051e565b1980831691505092915050565b5f6200055583836200052a565b9150826002028217905092915050565b620005708262000337565b67ffffffffffffffff8111156200058c576200058b62000115565b5b6200059882546200036e565b620005a5828285620004ce565b5f60209050601f831160018114620005db575f8415620005c6578287015190505b620005d2858262000548565b86555062000641565b601f198416620005eb86620003a2565b5f5b828110156200061457848901518255600182019150602085019450602081019050620005ed565b8683101562000634578489015162000630601f8916826200052a565b8355505b6001600288020188555050505b505050505050565b6104fd80620006575f395ff3fe608060405234801561000f575f80fd5b5060043610610060575f3560e01c8063313ce5671461006457806354fd4d50146100825780637284e416146100a05780639a6fc8f5146100be578063d4c19bda146100f2578063feaf968c1461010e575b5f80fd5b61006c610130565b604051610079919061023b565b60405180910390f35b61008a610145565b604051610097919061026c565b60405180910390f35b6100a861014e565b6040516100b5919061030f565b60405180910390f35b6100d860048036038101906100d39190610372565b6101de565b6040516100e99594939291906103c4565b60405180910390f35b61010c6004803603810190610107919061043f565b6101fb565b005b610116610204565b6040516101279594939291906103c4565b60405180910390f35b5f60015f9054906101000a900460ff16905090565b5f600354905090565b60606002805461015d90610497565b80601f016020809104026020016040519081016040528092919081815260200182805461018990610497565b80156101d45780601f106101ab576101008083540402835291602001916101d4565b820191905f5260205f20905b8154815290600101906020018083116101b757829003601f168201915b5050505050905090565b5f805f805f855f805f809450945094509450945091939590929450565b805f8190555050565b5f805f805f805f5442425f945094509450945094509091929394565b5f60ff82169050919050565b61023581610220565b82525050565b5f60208201905061024e5f83018461022c565b92915050565b5f819050919050565b61026681610254565b82525050565b5f60208201905061027f5f83018461025d565b92915050565b5f81519050919050565b5f82825260208201905092915050565b5f5b838110156102bc5780820151818401526020810190506102a1565b5f8484015250505050565b5f601f19601f8301169050919050565b5f6102e182610285565b6102eb818561028f565b93506102fb81856020860161029f565b610304816102c7565b840191505092915050565b5f6020820190508181035f83015261032781846102d7565b905092915050565b5f80fd5b5f69ffffffffffffffffffff82169050919050565b61035181610333565b811461035b575f80fd5b50565b5f8135905061036c81610348565b92915050565b5f602082840312156103875761038661032f565b5b5f6103948482850161035e565b91505092915050565b6103a681610333565b82525050565b5f819050919050565b6103be816103ac565b82525050565b5f60a0820190506103d75f83018861039d565b6103e460208301876103b5565b6103f1604083018661025d565b6103fe606083018561025d565b61040b608083018461039d565b9695505050505050565b61041e816103ac565b8114610428575f80fd5b50565b5f8135905061043981610415565b92915050565b5f602082840312156104545761045361032f565b5b5f6104618482850161042b565b91505092915050565b7f4e487b71000000000000000000000000000000000000000000000000000000005f52602260045260245ffd5b5f60028204905060018216806104ae57607f821691505b6020821081036104c1576104c061046a565b5b5091905056fea26469706673582212209f6fe09ca38429dca82d865ad9c13e0b712b5528979a739bb0484414c00bd19364736f6c63430008140033",
  "immutableReferences": {},
  "source": "// SPDX-License-Identifier: MIT\npragma solidity >=0.6.0 <0.9.0;\n\nimport \"../../node_modules/@chainlink/contracts/src/v0.8/interfaces/AggregatorV3Interface.sol\";\nimport \"../../node_modules/@openzeppelin/contracts/utils/math/SafeMath.sol\";\nimport \"../Mocks/MockSeiUsdPriceFeed.sol\";\n\ncontract Donation {\n    using SafeMath for uint256; // For versions < 0.6\n\n    mapping(address => uint256) public addressToFunded;\n    address public owner;\n\n    // Funders test is by array index\n    address[] public funders;\n\n    AggregatorV3Interface internal dataFeed;\n    address public priceFeedAddress;\n\n     /**\n     * Network: Sei EVM Testnet (Atlantic-2)\n     * Aggregator: SEI/USD\n     * Using a mock price feed for SEI/USD since Chainlink price feeds may not be available on Sei EVM Testnet yet\n     */\n\n    constructor() {\n        // Deploy a mock price feed for SEI/USD\n        // Initial price: $0.50 with 8 decimals (50000000)\n        MockSeiUsdPriceFeed mockPriceFeed = new MockSeiUsdPriceFeed(\n            50000000,           // Initial price: $0.50 with 8 decimals\n            8,                  // Decimals: 8 (standard for Chainlink price feeds)\n            \"SEI / USD\",        // Description\n            1                   // Version\n        );\n\n        dataFeed = AggregatorV3Interface(address(mockPriceFeed));\n        priceFeedAddress = address(mockPriceFeed);\n        owner = msg.sender;\n    }\n\n    // Function that allows user to deposit\n    function transferFunds(address payable recipient) public payable {\n        // Optional: minimum input value\n        // uint256 minimumUSD = 1 * 10 ** 18;\n        // require(convertETHToUSD(msg.value) >= minimumUSD, \"The minimum value(1 U$) was not reached!\");\n\n        addressToFunded[msg.sender] += msg.value;\n        funders.push(msg.sender);\n        recipient.transfer(address(this).balance);\n    }\n\n    // Function that returns the balance of contract\n    function balance() public view returns (uint256) {\n        return address(this).balance;\n    }\n\n    // Function that converts get the price from data feed\n    function getPriceData() public view returns (uint256) {\n        (,int256 price,,,) = dataFeed.latestRoundData();\n        return uint256(price *  100000000);\n        // 190275000000 -> 8 decimals -> 1,902.75000000\n    }\n\n    // Function that get the version of data feed\n    function getVersion() public view returns(uint256) {\n        return dataFeed.version();\n    }\n\n    // Function that get the conversion rate SEI/USD\n    function convertSEIToUSD(uint256 seiAmount) public view returns (uint256) {\n        uint256 seiPrice = getPriceData();\n        uint256 seiAmountInUsd = (seiPrice * seiAmount) / 1000000000000000000;\n\n        return seiAmountInUsd;\n        // 1 gwei(1000000000) to U$\n    }\n\n    // Function that get the conversion rate USD/SEI\n    function convertUSDToSEI(uint256 usdAmount) public view returns (uint256) {\n        uint256 seiPrice = getPriceData();\n        // uint256 seiAmount = (usdAmount * 10 **10)/ (seiPrice);\n        uint256 seiAmount = (usdAmount  * 10 ** 18 / seiPrice);\n\n        return seiAmount;\n    }\n\n    // Modifier that checks if the user is the contract owner\n    modifier isOwner {\n        require(msg.sender == owner, \"You're not the contract owner\");\n        _;\n    }\n\n    // Function that withdraw the amount sent to the fund\n    function withdraw() payable isOwner public {\n        // Send the money deposited to the contract owner\n        payable(msg.sender).transfer(address(this).balance);\n\n        // Reseting all the variables\n        for (uint256 funderIndex = 0; funderIndex < funders.length; funderIndex++){\n            address funder = funders[funderIndex];\n            addressToFunded[funder] = 0;\n        }\n        funders = new address[](0);\n    }\n\n    // Function to update the price feed (only for testing purposes)\n    function updatePriceFeed(int256 _newPrice) external isOwner {\n        MockSeiUsdPriceFeed(priceFeedAddress).updatePrice(_newPrice);\n    }\n}",
  "sourcePath": "/home/evm/sei/flipper/contracts/contracts/User/Donation.sol",
  "compiler": {
    "name": "solc",
    "version": "0.8.20+commit.a1b79de6.Emscripten.clang"
  },
  "schemaVersion": "3.4.16",
  "updatedAt": "2025-04-23T06:07:22.356Z",
  "devdoc": {
    "kind": "dev",
    "methods": {},
    "version": 1
  },
  "userdoc": {
    "kind": "user",
    "methods": {
      "constructor": {
        "notice": "Network: Sei EVM Testnet (Atlantic-2) Aggregator: SEI/USD Using a mock price feed for SEI/USD since Chainlink price feeds may not be available on Sei EVM Testnet yet"
      }
    },
    "version": 1
  }
}