{
  "contractName": "Image",
  "abi": [
    {
      "inputs": [
        {
          "internalType": "uint256",
          "name": "_id",
          "type": "uint256"
        },
        {
          "internalType": "string",
          "name": "_timestamp",
          "type": "string"
        },
        {
          "internalType": "string",
          "name": "_imageUrl",
          "type": "string"
        },
        {
          "internalType": "string",
          "name": "_content",
          "type": "string"
        }
      ],
      "stateMutability": "nonpayable",
      "type": "constructor"
    },
    {
      "inputs": [
        {
          "internalType": "uint256",
          "name": "",
          "type": "uint256"
        }
      ],
      "name": "comments",
      "outputs": [
        {
          "internalType": "address",
          "name": "user",
          "type": "address"
        },
        {
          "internalType": "string",
          "name": "comment",
          "type": "string"
        }
      ],
      "stateMutability": "view",
      "type": "function"
    },
    {
      "inputs": [],
      "name": "content",
      "outputs": [
        {
          "internalType": "string",
          "name": "",
          "type": "string"
        }
      ],
      "stateMutability": "view",
      "type": "function"
    },
    {
      "inputs": [
        {
          "internalType": "uint256",
          "name": "",
          "type": "uint256"
        }
      ],
      "name": "dislikes",
      "outputs": [
        {
          "internalType": "address",
          "name": "",
          "type": "address"
        }
      ],
      "stateMutability": "view",
      "type": "function"
    },
    {
      "inputs": [],
      "name": "id",
      "outputs": [
        {
          "internalType": "uint256",
          "name": "",
          "type": "uint256"
        }
      ],
      "stateMutability": "view",
      "type": "function"
    },
    {
      "inputs": [],
      "name": "imageUrl",
      "outputs": [
        {
          "internalType": "string",
          "name": "",
          "type": "string"
        }
      ],
      "stateMutability": "view",
      "type": "function"
    },
    {
      "inputs": [
        {
          "internalType": "uint256",
          "name": "",
          "type": "uint256"
        }
      ],
      "name": "likes",
      "outputs": [
        {
          "internalType": "address",
          "name": "",
          "type": "address"
        }
      ],
      "stateMutability": "view",
      "type": "function"
    },
    {
      "inputs": [],
      "name": "owner",
      "outputs": [
        {
          "internalType": "address",
          "name": "",
          "type": "address"
        }
      ],
      "stateMutability": "view",
      "type": "function"
    },
    {
      "inputs": [],
      "name": "postType",
      "outputs": [
        {
          "internalType": "string",
          "name": "",
          "type": "string"
        }
      ],
      "stateMutability": "view",
      "type": "function"
    },
    {
      "inputs": [],
      "name": "timestamp",
      "outputs": [
        {
          "internalType": "string",
          "name": "",
          "type": "string"
        }
      ],
      "stateMutability": "view",
      "type": "function"
    },
    {
      "inputs": [
        {
          "internalType": "string",
          "name": "_comment",
          "type": "string"
        }
      ],
      "name": "addComment",
      "outputs": [],
      "stateMutability": "nonpayable",
      "type": "function"
    },
    {
      "inputs": [],
      "name": "like",
      "outputs": [],
      "stateMutability": "nonpayable",
      "type": "function"
    },
    {
      "inputs": [],
      "name": "dislike",
      "outputs": [],
      "stateMutability": "nonpayable",
      "type": "function"
    },
    {
      "inputs": [],
      "name": "getLikes",
      "outputs": [
        {
          "internalType": "address[]",
          "name": "",
          "type": "address[]"
        }
      ],
      "stateMutability": "view",
      "type": "function"
    },
    {
      "inputs": [],
      "name": "getDislikes",
      "outputs": [
        {
          "internalType": "address[]",
          "name": "",
          "type": "address[]"
        }
      ],
      "stateMutability": "view",
      "type": "function"
    },
    {
      "inputs": [],
      "name": "getComments",
      "outputs": [
        {
          "components": [
            {
              "internalType": "address",
              "name": "user",
              "type": "address"
            },
            {
              "internalType": "string",
              "name": "comment",
              "type": "string"
            }
          ],
          "internalType": "struct Comment[]",
          "name": "",
          "type": "tuple[]"
        }
      ],
      "stateMutability": "view",
      "type": "function"
    },
    {
      "inputs": [],
      "name": "getImage",
      "outputs": [
        {
          "internalType": "uint256",
          "name": "",
          "type": "uint256"
        },
        {
          "internalType": "string",
          "name": "",
          "type": "string"
        },
        {
          "internalType": "string",
          "name": "",
          "type": "string"
        },
        {
          "internalType": "string",
          "name": "",
          "type": "string"
        },
        {
          "internalType": "string",
          "name": "",
          "type": "string"
        },
        {
          "internalType": "address[]",
          "name": "",
          "type": "address[]"
        },
        {
          "internalType": "address[]",
          "name": "",
          "type": "address[]"
        },
        {
          "components": [
            {
              "internalType": "address",
              "name": "user",
              "type": "address"
            },
            {
              "internalType": "string",
              "name": "comment",
              "type": "string"
            }
          ],
          "internalType": "struct Comment[]",
          "name": "",
          "type": "tuple[]"
        }
      ],
      "stateMutability": "view",
      "type": "function"
    }
  ],
  "bytecode": "0x60806040526040518060400160405280600581526020017f696d616765000000000000000000000000000000000000000000000000000000815250600690816200004a919062000368565b5034801562000057575f80fd5b5060405162001ee938038062001ee983398181016040528101906200007d9190620005d3565b83600181905550826004908162000095919062000368565b508160039081620000a7919062000368565b508060059081620000b9919062000368565b503360025f6101000a81548173ffffffffffffffffffffffffffffffffffffffff021916908373ffffffffffffffffffffffffffffffffffffffff160217905550505050506200069f565b5f81519050919050565b7f4e487b71000000000000000000000000000000000000000000000000000000005f52604160045260245ffd5b7f4e487b71000000000000000000000000000000000000000000000000000000005f52602260045260245ffd5b5f60028204905060018216806200018057607f821691505b6020821081036200019657620001956200013b565b5b50919050565b5f819050815f5260205f209050919050565b5f6020601f8301049050919050565b5f82821b905092915050565b5f60088302620001fa7fffffffffffffffffffffffffffffffffffffffffffffffffffffffffffffffff82620001bd565b620002068683620001bd565b95508019841693508086168417925050509392505050565b5f819050919050565b5f819050919050565b5f620002506200024a62000244846200021e565b62000227565b6200021e565b9050919050565b5f819050919050565b6200026b8362000230565b620002836200027a8262000257565b848454620001c9565b825550505050565b5f90565b620002996200028b565b620002a681848462000260565b505050565b5b81811015620002cd57620002c15f826200028f565b600181019050620002ac565b5050565b601f8211156200031c57620002e6816200019c565b620002f184620001ae565b8101602085101562000301578190505b620003196200031085620001ae565b830182620002ab565b50505b505050565b5f82821c905092915050565b5f6200033e5f198460080262000321565b1980831691505092915050565b5f6200035883836200032d565b9150826002028217905092915050565b620003738262000104565b67ffffffffffffffff8111156200038f576200038e6200010e565b5b6200039b825462000168565b620003a8828285620002d1565b5f60209050601f831160018114620003de575f8415620003c9578287015190505b620003d585826200034b565b86555062000444565b601f198416620003ee866200019c565b5f5b828110156200041757848901518255600182019150602085019450602081019050620003f0565b8683101562000437578489015162000433601f8916826200032d565b8355505b6001600288020188555050505b505050505050565b5f604051905090565b5f80fd5b5f80fd5b62000468816200021e565b811462000473575f80fd5b50565b5f8151905062000486816200045d565b92915050565b5f80fd5b5f80fd5b5f601f19601f8301169050919050565b620004af8262000494565b810181811067ffffffffffffffff82111715620004d157620004d06200010e565b5b80604052505050565b5f620004e56200044c565b9050620004f38282620004a4565b919050565b5f67ffffffffffffffff8211156200051557620005146200010e565b5b620005208262000494565b9050602081019050919050565b5f5b838110156200054c5780820151818401526020810190506200052f565b5f8484015250505050565b5f6200056d6200056784620004f8565b620004da565b9050828152602081018484840111156200058c576200058b62000490565b5b620005998482856200052d565b509392505050565b5f82601f830112620005b857620005b76200048c565b5b8151620005ca84826020860162000557565b91505092915050565b5f805f8060808587031215620005ee57620005ed62000455565b5b5f620005fd8782880162000476565b945050602085015167ffffffffffffffff81111562000621576200062062000459565b5b6200062f87828801620005a1565b935050604085015167ffffffffffffffff81111562000653576200065262000459565b5b6200066187828801620005a1565b925050606085015167ffffffffffffffff81111562000685576200068462000459565b5b6200069387828801620005a1565b91505092959194509250565b61183c80620006ad5f395ff3fe608060405234801561000f575f80fd5b50600436106100fe575f3560e01c806399f71a7d11610095578063b80777ea11610064578063b80777ea1461028b578063df5a11e1146102a9578063f3651cbb146102b3578063f6821a0c146102d8576100fe565b806399f71a7d14610227578063a523b88a14610245578063aba831501461024f578063af640d0f1461026d576100fe565b80638a4d5a67116100d15780638a4d5a671461019c5780638da5cb5b146101ba5780638ebb4c15146101d857806391f3410c14610209576100fe565b80634db27e4e1461010257806362a1c583146101325780637e9dffe614610150578063843b438614610180575b5f80fd5b61011c60048036038101906101179190610ec5565b6102f6565b6040516101299190610f2f565b60405180910390f35b61013a610331565b6040516101479190610fff565b60405180910390f35b61016a60048036038101906101659190610ec5565b6103bc565b6040516101779190610f2f565b60405180910390f35b61019a6004803603810190610195919061115b565b6103f7565b005b6101a46104a6565b6040516101b1919061121c565b60405180910390f35b6101c2610532565b6040516101cf9190610f2f565b60405180910390f35b6101f260048036038101906101ed9190610ec5565b610557565b60405161020092919061123c565b60405180910390f35b61021161061c565b60405161021e91906113a7565b60405180910390f35b61022f6107ca565b60405161023c919061121c565b60405180910390f35b61024d610856565b005b6102576108b8565b604051610264919061121c565b60405180910390f35b610275610944565b60405161028291906113d6565b60405180910390f35b61029361094a565b6040516102a0919061121c565b60405180910390f35b6102b16109d6565b005b6102bb610a38565b6040516102cf9897969594939291906113ef565b60405180910390f35b6102e0610da7565b6040516102ed9190610fff565b60405180910390f35b60088181548110610305575f80fd5b905f5260205f20015f915054906101000a900473ffffffffffffffffffffffffffffffffffffffff1681565b606060078054806020026020016040519081016040528092919081815260200182805480156103b257602002820191905f5260205f20905b815f9054906101000a900473ffffffffffffffffffffffffffffffffffffffff1673ffffffffffffffffffffffffffffffffffffffff1681526020019060010190808311610369575b5050505050905090565b600781815481106103cb575f80fd5b905f5260205f20015f915054906101000a900473ffffffffffffffffffffffffffffffffffffffff1681565b6104016009610e32565b60405180604001604052803373ffffffffffffffffffffffffffffffffffffffff16815260200182815250600a5f6104396009610e46565b81526020019081526020015f205f820151815f015f6101000a81548173ffffffffffffffffffffffffffffffffffffffff021916908373ffffffffffffffffffffffffffffffffffffffff160217905550602082015181600101908161049f9190611696565b5090505050565b600580546104b3906114c9565b80601f01602080910402602001604051908101604052809291908181526020018280546104df906114c9565b801561052a5780601f106105015761010080835404028352916020019161052a565b820191905f5260205f20905b81548152906001019060200180831161050d57829003601f168201915b505050505081565b60025f9054906101000a900473ffffffffffffffffffffffffffffffffffffffff1681565b600a602052805f5260405f205f91509050805f015f9054906101000a900473ffffffffffffffffffffffffffffffffffffffff169080600101805461059b906114c9565b80601f01602080910402602001604051908101604052809291908181526020018280546105c7906114c9565b80156106125780601f106105e957610100808354040283529160200191610612565b820191905f5260205f20905b8154815290600101906020018083116105f557829003601f168201915b5050505050905082565b60605f6106296009610e46565b67ffffffffffffffff81111561064257610641611037565b5b60405190808252806020026020018201604052801561067b57816020015b610668610e52565b8152602001906001900390816106605790505b5090505f5b61068a6009610e46565b8110156107c257600a5f8281526020019081526020015f206040518060400160405290815f82015f9054906101000a900473ffffffffffffffffffffffffffffffffffffffff1673ffffffffffffffffffffffffffffffffffffffff1673ffffffffffffffffffffffffffffffffffffffff168152602001600182018054610711906114c9565b80601f016020809104026020016040519081016040528092919081815260200182805461073d906114c9565b80156107885780601f1061075f57610100808354040283529160200191610788565b820191905f5260205f20905b81548152906001019060200180831161076b57829003601f168201915b5050505050815250508282815181106107a4576107a3611765565b5b602002602001018190525080806107ba906117bf565b915050610680565b508091505090565b600680546107d7906114c9565b80601f0160208091040260200160405190810160405280929190818152602001828054610803906114c9565b801561084e5780601f106108255761010080835404028352916020019161084e565b820191905f5260205f20905b81548152906001019060200180831161083157829003601f168201915b505050505081565b600733908060018154018082558091505060019003905f5260205f20015f9091909190916101000a81548173ffffffffffffffffffffffffffffffffffffffff021916908373ffffffffffffffffffffffffffffffffffffffff160217905550565b600380546108c5906114c9565b80601f01602080910402602001604051908101604052809291908181526020018280546108f1906114c9565b801561093c5780601f106109135761010080835404028352916020019161093c565b820191905f5260205f20905b81548152906001019060200180831161091f57829003601f168201915b505050505081565b60015481565b60048054610957906114c9565b80601f0160208091040260200160405190810160405280929190818152602001828054610983906114c9565b80156109ce5780601f106109a5576101008083540402835291602001916109ce565b820191905f5260205f20905b8154815290600101906020018083116109b157829003601f168201915b505050505081565b600833908060018154018082558091505060019003905f5260205f20015f9091909190916101000a81548173ffffffffffffffffffffffffffffffffffffffff021916908373ffffffffffffffffffffffffffffffffffffffff160217905550565b5f6060806060806060806060600154600460036005600660076008610a5b61061c565b868054610a67906114c9565b80601f0160208091040260200160405190810160405280929190818152602001828054610a93906114c9565b8015610ade5780601f10610ab557610100808354040283529160200191610ade565b820191905f5260205f20905b815481529060010190602001808311610ac157829003601f168201915b50505050509650858054610af1906114c9565b80601f0160208091040260200160405190810160405280929190818152602001828054610b1d906114c9565b8015610b685780601f10610b3f57610100808354040283529160200191610b68565b820191905f5260205f20905b815481529060010190602001808311610b4b57829003601f168201915b50505050509550848054610b7b906114c9565b80601f0160208091040260200160405190810160405280929190818152602001828054610ba7906114c9565b8015610bf25780601f10610bc957610100808354040283529160200191610bf2565b820191905f5260205f20905b815481529060010190602001808311610bd557829003601f168201915b50505050509450838054610c05906114c9565b80601f0160208091040260200160405190810160405280929190818152602001828054610c31906114c9565b8015610c7c5780601f10610c5357610100808354040283529160200191610c7c565b820191905f5260205f20905b815481529060010190602001808311610c5f57829003601f168201915b5050505050935082805480602002602001604051908101604052809291908181526020018280548015610d0157602002820191905f5260205f20905b815f9054906101000a900473ffffffffffffffffffffffffffffffffffffffff1673ffffffffffffffffffffffffffffffffffffffff1681526020019060010190808311610cb8575b5050505050925081805480602002602001604051908101604052809291908181526020018280548015610d8657602002820191905f5260205f20905b815f9054906101000a900473ffffffffffffffffffffffffffffffffffffffff1673ffffffffffffffffffffffffffffffffffffffff1681526020019060010190808311610d3d575b50505050509150975097509750975097509750975097509091929394959697565b60606008805480602002602001604051908101604052809291908181526020018280548015610e2857602002820191905f5260205f20905b815f9054906101000a900473ffffffffffffffffffffffffffffffffffffffff1673ffffffffffffffffffffffffffffffffffffffff1681526020019060010190808311610ddf575b5050505050905090565b6001815f015f828254019250508190555050565b5f815f01549050919050565b60405180604001604052805f73ffffffffffffffffffffffffffffffffffffffff168152602001606081525090565b5f604051905090565b5f80fd5b5f80fd5b5f819050919050565b610ea481610e92565b8114610eae575f80fd5b50565b5f81359050610ebf81610e9b565b92915050565b5f60208284031215610eda57610ed9610e8a565b5b5f610ee784828501610eb1565b91505092915050565b5f73ffffffffffffffffffffffffffffffffffffffff82169050919050565b5f610f1982610ef0565b9050919050565b610f2981610f0f565b82525050565b5f602082019050610f425f830184610f20565b92915050565b5f81519050919050565b5f82825260208201905092915050565b5f819050602082019050919050565b610f7a81610f0f565b82525050565b5f610f8b8383610f71565b60208301905092915050565b5f602082019050919050565b5f610fad82610f48565b610fb78185610f52565b9350610fc283610f62565b805f5b83811015610ff2578151610fd98882610f80565b9750610fe483610f97565b925050600181019050610fc5565b5085935050505092915050565b5f6020820190508181035f8301526110178184610fa3565b905092915050565b5f80fd5b5f80fd5b5f601f19601f8301169050919050565b7f4e487b71000000000000000000000000000000000000000000000000000000005f52604160045260245ffd5b61106d82611027565b810181811067ffffffffffffffff8211171561108c5761108b611037565b5b80604052505050565b5f61109e610e81565b90506110aa8282611064565b919050565b5f67ffffffffffffffff8211156110c9576110c8611037565b5b6110d282611027565b9050602081019050919050565b828183375f83830152505050565b5f6110ff6110fa846110af565b611095565b90508281526020810184848401111561111b5761111a611023565b5b6111268482856110df565b509392505050565b5f82601f8301126111425761114161101f565b5b81356111528482602086016110ed565b91505092915050565b5f602082840312156111705761116f610e8a565b5b5f82013567ffffffffffffffff81111561118d5761118c610e8e565b5b6111998482850161112e565b91505092915050565b5f81519050919050565b5f82825260208201905092915050565b5f5b838110156111d95780820151818401526020810190506111be565b5f8484015250505050565b5f6111ee826111a2565b6111f881856111ac565b93506112088185602086016111bc565b61121181611027565b840191505092915050565b5f6020820190508181035f83015261123481846111e4565b905092915050565b5f60408201905061124f5f830185610f20565b818103602083015261126181846111e4565b90509392505050565b5f81519050919050565b5f82825260208201905092915050565b5f819050602082019050919050565b5f82825260208201905092915050565b5f6112ad826111a2565b6112b78185611293565b93506112c78185602086016111bc565b6112d081611027565b840191505092915050565b5f604083015f8301516112f05f860182610f71565b506020830151848203602086015261130882826112a3565b9150508091505092915050565b5f61132083836112db565b905092915050565b5f602082019050919050565b5f61133e8261126a565b6113488185611274565b93508360208202850161135a85611284565b805f5b8581101561139557848403895281516113768582611315565b945061138183611328565b925060208a0199505060018101905061135d565b50829750879550505050505092915050565b5f6020820190508181035f8301526113bf8184611334565b905092915050565b6113d081610e92565b82525050565b5f6020820190506113e95f8301846113c7565b92915050565b5f610100820190506114035f83018b6113c7565b8181036020830152611415818a6111e4565b9050818103604083015261142981896111e4565b9050818103606083015261143d81886111e4565b9050818103608083015261145181876111e4565b905081810360a08301526114658186610fa3565b905081810360c08301526114798185610fa3565b905081810360e083015261148d8184611334565b90509998505050505050505050565b7f4e487b71000000000000000000000000000000000000000000000000000000005f52602260045260245ffd5b5f60028204905060018216806114e057607f821691505b6020821081036114f3576114f261149c565b5b50919050565b5f819050815f5260205f209050919050565b5f6020601f8301049050919050565b5f82821b905092915050565b5f600883026115557fffffffffffffffffffffffffffffffffffffffffffffffffffffffffffffffff8261151a565b61155f868361151a565b95508019841693508086168417925050509392505050565b5f819050919050565b5f61159a61159561159084610e92565b611577565b610e92565b9050919050565b5f819050919050565b6115b383611580565b6115c76115bf826115a1565b848454611526565b825550505050565b5f90565b6115db6115cf565b6115e68184846115aa565b505050565b5b81811015611609576115fe5f826115d3565b6001810190506115ec565b5050565b601f82111561164e5761161f816114f9565b6116288461150b565b81016020851015611637578190505b61164b6116438561150b565b8301826115eb565b50505b505050565b5f82821c905092915050565b5f61166e5f1984600802611653565b1980831691505092915050565b5f611686838361165f565b9150826002028217905092915050565b61169f826111a2565b67ffffffffffffffff8111156116b8576116b7611037565b5b6116c282546114c9565b6116cd82828561160d565b5f60209050601f8311600181146116fe575f84156116ec578287015190505b6116f6858261167b565b86555061175d565b601f19841661170c866114f9565b5f5b828110156117335784890151825560018201915060208501945060208101905061170e565b86831015611750578489015161174c601f89168261165f565b8355505b6001600288020188555050505b505050505050565b7f4e487b71000000000000000000000000000000000000000000000000000000005f52603260045260245ffd5b7f4e487b71000000000000000000000000000000000000000000000000000000005f52601160045260245ffd5b5f6117c982610e92565b91507fffffffffffffffffffffffffffffffffffffffffffffffffffffffffffffffff82036117fb576117fa611792565b5b60018201905091905056fea26469706673582212202eca95e49a2d55b162c5e4c6b582872089b3c0e486127799d5e7ad47de0827e264736f6c63430008140033",
  "immutableReferences": {},
  "source": "// SPDX-License-Identifier: MIT\npragma solidity ^0.8.18;\n\nimport \"../../node_modules/@openzeppelin/contracts/utils/Counters.sol\";\n\nstruct Comment {\n    address user;\n    string comment;\n}\n\ncontract Image {\n    using Counters for Counters.Counter;\n\n    Counters.Counter private postIdCounter;\n\n    uint public id;\n    address public owner; // user\n    string public imageUrl;\n    string public timestamp;\n    string public content; // post\n    string public postType = \"image\"; // \"image\"\n    address[] public likes;\n    address[] public dislikes;\n    Counters.Counter private commentIdCounter;\n    mapping(uint => Comment) public comments;\n\n    constructor(\n        uint _id,\n        string memory _timestamp,\n        string memory _imageUrl,\n        string memory _content\n    ) {\n        id = _id;\n        timestamp = _timestamp;\n        imageUrl = _imageUrl;\n        content = _content;\n\n        owner = msg.sender;\n    }\n\n    modifier onlyOwner() {\n        require(msg.sender == owner, \"Only owner can call this function.\");\n        _;\n    }\n\n    function addComment(string memory _comment) public {\n        commentIdCounter.increment();\n        comments[commentIdCounter.current()] = Comment(msg.sender, _comment);\n    }\n\n    function like() public {\n        likes.push(msg.sender);\n    }\n\n    function dislike() public {\n        dislikes.push(msg.sender);\n    }\n\n    function getLikes() public view returns (address[] memory) {\n        return likes;\n    }\n\n    function getDislikes() public view returns (address[] memory) {\n        return dislikes;\n    }\n\n    function getComments() public view returns (Comment[] memory) {\n        Comment[] memory _comments = new Comment[](commentIdCounter.current());\n        for (uint i = 0; i < commentIdCounter.current(); i++) {\n            _comments[i] = comments[i];\n        }\n        return _comments;\n    }\n\n    function getImage()\n        public\n        view\n        returns (\n            uint,\n            string memory,\n            string memory,\n            string memory,\n            string memory,\n            address[] memory,\n            address[] memory,\n            Comment[] memory\n        )\n    {\n        return (\n            id,\n            timestamp,\n            imageUrl,\n            content,\n            postType,\n            likes,\n            dislikes,\n            getComments()\n        );\n    }\n}\n",
  "sourcePath": "/home/evm/sei/flipper/contracts/contracts/User/Image.sol",
  "compiler": {
    "name": "solc",
    "version": "0.8.20+commit.a1b79de6.Emscripten.clang"
  },
  "schemaVersion": "3.4.16",
  "updatedAt": "2025-04-23T06:07:22.378Z",
  "devdoc": {
    "kind": "dev",
    "methods": {},
    "version": 1
  },
  "userdoc": {
    "kind": "user",
    "methods": {},
    "version": 1
  }
}