{
  "contractName": "MockSeiUsdPriceFeed",
  "abi": [
    {
      "inputs": [
        {
          "internalType": "int256",
          "name": "_initialPrice",
          "type": "int256"
        },
        {
          "internalType": "uint8",
          "name": "_decimals",
          "type": "uint8"
        },
        {
          "internalType": "string",
          "name": "_description",
          "type": "string"
        },
        {
          "internalType": "uint256",
          "name": "_version",
          "type": "uint256"
        }
      ],
      "stateMutability": "nonpayable",
      "type": "constructor"
    },
    {
      "inputs": [],
      "name": "decimals",
      "outputs": [
        {
          "internalType": "uint8",
          "name": "",
          "type": "uint8"
        }
      ],
      "stateMutability": "view",
      "type": "function"
    },
    {
      "inputs": [],
      "name": "description",
      "outputs": [
        {
          "internalType": "string",
          "name": "",
          "type": "string"
        }
      ],
      "stateMutability": "view",
      "type": "function"
    },
    {
      "inputs": [],
      "name": "version",
      "outputs": [
        {
          "internalType": "uint256",
          "name": "",
          "type": "uint256"
        }
      ],
      "stateMutability": "view",
      "type": "function"
    },
    {
      "inputs": [
        {
          "internalType": "uint80",
          "name": "_roundId",
          "type": "uint80"
        }
      ],
      "name": "getRoundData",
      "outputs": [
        {
          "internalType": "uint80",
          "name": "roundId",
          "type": "uint80"
        },
        {
          "internalType": "int256",
          "name": "answer",
          "type": "int256"
        },
        {
          "internalType": "uint256",
          "name": "startedAt",
          "type": "uint256"
        },
        {
          "internalType": "uint256",
          "name": "updatedAt",
          "type": "uint256"
        },
        {
          "internalType": "uint80",
          "name": "answeredInRound",
          "type": "uint80"
        }
      ],
      "stateMutability": "pure",
      "type": "function"
    },
    {
      "inputs": [],
      "name": "latestRoundData",
      "outputs": [
        {
          "internalType": "uint80",
          "name": "roundId",
          "type": "uint80"
        },
        {
          "internalType": "int256",
          "name": "answer",
          "type": "int256"
        },
        {
          "internalType": "uint256",
          "name": "startedAt",
          "type": "uint256"
        },
        {
          "internalType": "uint256",
          "name": "updatedAt",
          "type": "uint256"
        },
        {
          "internalType": "uint80",
          "name": "answeredInRound",
          "type": "uint80"
        }
      ],
      "stateMutability": "view",
      "type": "function"
    },
    {
      "inputs": [
        {
          "internalType": "int256",
          "name": "_newPrice",
          "type": "int256"
        }
      ],
      "name": "updatePrice",
      "outputs": [],
      "stateMutability": "nonpayable",
      "type": "function"
    }
  ],
  "bytecode": "0x608060405234801562000010575f80fd5b5060405162000b5438038062000b548339818101604052810190620000369190620002a9565b835f819055508260015f6101000a81548160ff021916908360ff160217905550816002908162000067919062000565565b50806003819055505050505062000649565b5f604051905090565b5f80fd5b5f80fd5b5f819050919050565b6200009e816200008a565b8114620000a9575f80fd5b50565b5f81519050620000bc8162000093565b92915050565b5f60ff82169050919050565b620000d981620000c2565b8114620000e4575f80fd5b50565b5f81519050620000f781620000ce565b92915050565b5f80fd5b5f80fd5b5f601f19601f8301169050919050565b7f4e487b71000000000000000000000000000000000000000000000000000000005f52604160045260245ffd5b6200014d8262000105565b810181811067ffffffffffffffff821117156200016f576200016e62000115565b5b80604052505050565b5f6200018362000079565b905062000191828262000142565b919050565b5f67ffffffffffffffff821115620001b357620001b262000115565b5b620001be8262000105565b9050602081019050919050565b5f5b83811015620001ea578082015181840152602081019050620001cd565b5f8484015250505050565b5f6200020b620002058462000196565b62000178565b9050828152602081018484840111156200022a576200022962000101565b5b62000237848285620001cb565b509392505050565b5f82601f830112620002565762000255620000fd565b5b815162000268848260208601620001f5565b91505092915050565b5f819050919050565b620002858162000271565b811462000290575f80fd5b50565b5f81519050620002a3816200027a565b92915050565b5f805f8060808587031215620002c457620002c362000082565b5b5f620002d387828801620000ac565b9450506020620002e687828801620000e7565b935050604085015167ffffffffffffffff8111156200030a576200030962000086565b5b62000318878288016200023f565b92505060606200032b8782880162000293565b91505092959194509250565b5f81519050919050565b7f4e487b71000000000000000000000000000000000000000000000000000000005f52602260045260245ffd5b5f60028204905060018216806200038657607f821691505b6020821081036200039c576200039b62000341565b5b50919050565b5f819050815f5260205f209050919050565b5f6020601f8301049050919050565b5f82821b905092915050565b5f60088302620004007fffffffffffffffffffffffffffffffffffffffffffffffffffffffffffffffff82620003c3565b6200040c8683620003c3565b95508019841693508086168417925050509392505050565b5f819050919050565b5f6200044d62000447620004418462000271565b62000424565b62000271565b9050919050565b5f819050919050565b62000468836200042d565b62000480620004778262000454565b848454620003cf565b825550505050565b5f90565b6200049662000488565b620004a38184846200045d565b505050565b5b81811015620004ca57620004be5f826200048c565b600181019050620004a9565b5050565b601f8211156200051957620004e381620003a2565b620004ee84620003b4565b81016020851015620004fe578190505b620005166200050d85620003b4565b830182620004a8565b50505b505050565b5f82821c905092915050565b5f6200053b5f19846008026200051e565b1980831691505092915050565b5f6200055583836200052a565b9150826002028217905092915050565b620005708262000337565b67ffffffffffffffff8111156200058c576200058b62000115565b5b6200059882546200036e565b620005a5828285620004ce565b5f60209050601f831160018114620005db575f8415620005c6578287015190505b620005d2858262000548565b86555062000641565b601f198416620005eb86620003a2565b5f5b828110156200061457848901518255600182019150602085019450602081019050620005ed565b8683101562000634578489015162000630601f8916826200052a565b8355505b6001600288020188555050505b505050505050565b6104fd80620006575f395ff3fe608060405234801561000f575f80fd5b5060043610610060575f3560e01c8063313ce5671461006457806354fd4d50146100825780637284e416146100a05780639a6fc8f5146100be578063d4c19bda146100f2578063feaf968c1461010e575b5f80fd5b61006c610130565b604051610079919061023b565b60405180910390f35b61008a610145565b604051610097919061026c565b60405180910390f35b6100a861014e565b6040516100b5919061030f565b60405180910390f35b6100d860048036038101906100d39190610372565b6101de565b6040516100e99594939291906103c4565b60405180910390f35b61010c6004803603810190610107919061043f565b6101fb565b005b610116610204565b6040516101279594939291906103c4565b60405180910390f35b5f60015f9054906101000a900460ff16905090565b5f600354905090565b60606002805461015d90610497565b80601f016020809104026020016040519081016040528092919081815260200182805461018990610497565b80156101d45780601f106101ab576101008083540402835291602001916101d4565b820191905f5260205f20905b8154815290600101906020018083116101b757829003601f168201915b5050505050905090565b5f805f805f855f805f809450945094509450945091939590929450565b805f8190555050565b5f805f805f805f5442425f945094509450945094509091929394565b5f60ff82169050919050565b61023581610220565b82525050565b5f60208201905061024e5f83018461022c565b92915050565b5f819050919050565b61026681610254565b82525050565b5f60208201905061027f5f83018461025d565b92915050565b5f81519050919050565b5f82825260208201905092915050565b5f5b838110156102bc5780820151818401526020810190506102a1565b5f8484015250505050565b5f601f19601f8301169050919050565b5f6102e182610285565b6102eb818561028f565b93506102fb81856020860161029f565b610304816102c7565b840191505092915050565b5f6020820190508181035f83015261032781846102d7565b905092915050565b5f80fd5b5f69ffffffffffffffffffff82169050919050565b61035181610333565b811461035b575f80fd5b50565b5f8135905061036c81610348565b92915050565b5f602082840312156103875761038661032f565b5b5f6103948482850161035e565b91505092915050565b6103a681610333565b82525050565b5f819050919050565b6103be816103ac565b82525050565b5f60a0820190506103d75f83018861039d565b6103e460208301876103b5565b6103f1604083018661025d565b6103fe606083018561025d565b61040b608083018461039d565b9695505050505050565b61041e816103ac565b8114610428575f80fd5b50565b5f8135905061043981610415565b92915050565b5f602082840312156104545761045361032f565b5b5f6104618482850161042b565b91505092915050565b7f4e487b71000000000000000000000000000000000000000000000000000000005f52602260045260245ffd5b5f60028204905060018216806104ae57607f821691505b6020821081036104c1576104c061046a565b5b5091905056fea26469706673582212209f6fe09ca38429dca82d865ad9c13e0b712b5528979a739bb0484414c00bd19364736f6c63430008140033",
  "immutableReferences": {},
  "source": "// SPDX-License-Identifier: MIT\npragma solidity ^0.8.0;\n\nimport \"../../node_modules/@chainlink/contracts/src/v0.8/interfaces/AggregatorV3Interface.sol\";\n\n/**\n * @title MockSeiUsdPriceFeed\n * @dev This contract mocks a Chainlink price feed for SEI/USD on Sei EVM Testnet (Atlantic-2)\n */\ncontract MockSeiUsdPriceFeed is AggregatorV3Interface {\n    // Mock price data\n    int256 private s_price;\n    uint8 private s_decimals;\n    string private s_description;\n    uint256 private s_version;\n\n    constructor(\n        int256 _initialPrice,\n        uint8 _decimals,\n        string memory _description,\n        uint256 _version\n    ) {\n        s_price = _initialPrice;\n        s_decimals = _decimals;\n        s_description = _description;\n        s_version = _version;\n    }\n\n    function decimals() external view override returns (uint8) {\n        return s_decimals;\n    }\n\n    function description() external view override returns (string memory) {\n        return s_description;\n    }\n\n    function version() external view override returns (uint256) {\n        return s_version;\n    }\n\n    function getRoundData(uint80 _roundId)\n        external\n        pure\n        override\n        returns (\n            uint80 roundId,\n            int256 answer,\n            uint256 startedAt,\n            uint256 updatedAt,\n            uint80 answeredInRound\n        )\n    {\n        // Not implemented for the mock\n        return (_roundId, 0, 0, 0, 0);\n    }\n\n    function latestRoundData()\n        external\n        view\n        override\n        returns (\n            uint80 roundId,\n            int256 answer,\n            uint256 startedAt,\n            uint256 updatedAt,\n            uint80 answeredInRound\n        )\n    {\n        return (\n            uint80(0),          // roundId\n            s_price,            // answer (price)\n            block.timestamp,    // startedAt\n            block.timestamp,    // updatedAt\n            uint80(0)           // answeredInRound\n        );\n    }\n\n    // Function to update the price (only for testing purposes)\n    function updatePrice(int256 _newPrice) external {\n        s_price = _newPrice;\n    }\n}\n",
  "sourcePath": "/home/evm/sei/flipper/contracts/contracts/Mocks/MockSeiUsdPriceFeed.sol",
  "compiler": {
    "name": "solc",
    "version": "0.8.20+commit.a1b79de6.Emscripten.clang"
  },
  "schemaVersion": "3.4.16",
  "updatedAt": "2025-04-23T06:07:22.343Z",
  "devdoc": {
    "details": "This contract mocks a Chainlink price feed for SEI/USD on Sei EVM Testnet (Atlantic-2)",
    "kind": "dev",
    "methods": {},
    "title": "MockSeiUsdPriceFeed",
    "version": 1
  },
  "userdoc": {
    "kind": "user",
    "methods": {},
    "version": 1
  }
}