{
  "contractName": "ProfileDNFTFactory",
  "abi": [
    {
      "anonymous": false,
      "inputs": [
        {
          "indexed": true,
          "internalType": "address",
          "name": "user",
          "type": "address"
        },
        {
          "indexed": true,
          "internalType": "address",
          "name": "profile",
          "type": "address"
        }
      ],
      "name": "ProfileCreated",
      "type": "event"
    },
    {
      "inputs": [
        {
          "internalType": "uint256",
          "name": "_updateInterval",
          "type": "uint256"
        }
      ],
      "name": "createProfileDNFT",
      "outputs": [],
      "stateMutability": "nonpayable",
      "type": "function"
    },
    {
      "inputs": [
        {
          "internalType": "address",
          "name": "user",
          "type": "address"
        }
      ],
      "name": "getUserProfile",
      "outputs": [
        {
          "internalType": "address",
          "name": "",
          "type": "address"
        }
      ],
      "stateMutability": "view",
      "type": "function"
    }
  ],
  "bytecode": "0x608060405234801561000f575f80fd5b5061464b8061001d5f395ff3fe608060405234801562000010575f80fd5b506004361062000038575f3560e01c80635d86081b146200003c578063987ee156146200005c575b5f80fd5b6200005a60048036038101906200005491906200038a565b62000092565b005b6200007a60048036038101906200007491906200041b565b620002db565b6040516200008991906200045c565b60405180910390f35b5f73ffffffffffffffffffffffffffffffffffffffff1660015f3373ffffffffffffffffffffffffffffffffffffffff1673ffffffffffffffffffffffffffffffffffffffff1681526020019081526020015f205f9054906101000a900473ffffffffffffffffffffffffffffffffffffffff1673ffffffffffffffffffffffffffffffffffffffff16146200015f576040517f08c379a00000000000000000000000000000000000000000000000000000000081526004016200015690620004fb565b60405180910390fd5b5f816040516200016f9062000340565b6200017b91906200052c565b604051809103905ff08015801562000195573d5f803e3d5ffd5b5090508073ffffffffffffffffffffffffffffffffffffffff166340d097c3336040518263ffffffff1660e01b8152600401620001d391906200045c565b5f604051808303815f87803b158015620001eb575f80fd5b505af1158015620001fe573d5f803e3d5ffd5b505050508060015f3373ffffffffffffffffffffffffffffffffffffffff1673ffffffffffffffffffffffffffffffffffffffff1681526020019081526020015f205f6101000a81548173ffffffffffffffffffffffffffffffffffffffff021916908373ffffffffffffffffffffffffffffffffffffffff1602179055508073ffffffffffffffffffffffffffffffffffffffff163373ffffffffffffffffffffffffffffffffffffffff167f0e3805ab5ed81d70cc14ca89a9d933b5cb074fe2cd9a0c48c3c4a6f404304bbc60405160405180910390a35050565b5f60015f8373ffffffffffffffffffffffffffffffffffffffff1673ffffffffffffffffffffffffffffffffffffffff1681526020019081526020015f205f9054906101000a900473ffffffffffffffffffffffffffffffffffffffff169050919050565b6140ce806200054883390190565b5f80fd5b5f819050919050565b620003668162000352565b811462000371575f80fd5b50565b5f8135905062000384816200035b565b92915050565b5f60208284031215620003a257620003a16200034e565b5b5f620003b18482850162000374565b91505092915050565b5f73ffffffffffffffffffffffffffffffffffffffff82169050919050565b5f620003e582620003ba565b9050919050565b620003f781620003d9565b811462000402575f80fd5b50565b5f813590506200041581620003ec565b92915050565b5f602082840312156200043357620004326200034e565b5b5f620004428482850162000405565b91505092915050565b6200045681620003d9565b82525050565b5f602082019050620004715f8301846200044b565b92915050565b5f82825260208201905092915050565b7f50726f66696c65444e4654466163746f72793a2050726f66696c6520616c72655f8201527f6164792065786973747300000000000000000000000000000000000000000000602082015250565b5f620004e3602a8362000477565b9150620004f08262000487565b604082019050919050565b5f6020820190508181035f8301526200051481620004d5565b9050919050565b620005268162000352565b82525050565b5f602082019050620005415f8301846200051b565b9291505056fe60a060405234801562000010575f80fd5b50604051620040ce380380620040ce833981810160405281019062000036919062000773565b6040518060400160405280600a81526020017f55736572496d61676573000000000000000000000000000000000000000000008152506040518060400160405280600581526020017f50686f746f000000000000000000000000000000000000000000000000000000815250815f9081620000b29190620009fe565b508060019081620000c49190620009fe565b505050806080818152505042600981905550620000f933620000ed60076200014360201b60201c565b6200014f60201b60201c565b6200012a6200010f60076200014360201b60201c565b60405180602001604052805f8152506200017460201b60201c565b6200013c60076200022560201b60201c565b5062000ed5565b5f815f01549050919050565b62000170828260405180602001604052805f8152506200023960201b60201c565b5050565b6200018582620002a660201b60201c565b620001c7576040517f08c379a0000000000000000000000000000000000000000000000000000000008152600401620001be9062000b66565b60405180910390fd5b8060065f8481526020019081526020015f209081620001e79190620009fe565b507ff8e1a15aba9398e019f0b49df1a4fde98ee17ae345cb5f6b5e2c27f5033e8ce78260405162000219919062000b97565b60405180910390a15050565b6001815f015f828254019250508190555050565b6200024b8383620002ee60201b60201c565b6200025f5f8484846200052a60201b60201c565b620002a1576040517f08c379a0000000000000000000000000000000000000000000000000000000008152600401620002989062000c26565b60405180910390fd5b505050565b5f8073ffffffffffffffffffffffffffffffffffffffff16620002cf83620006c960201b60201c565b73ffffffffffffffffffffffffffffffffffffffff1614159050919050565b5f73ffffffffffffffffffffffffffffffffffffffff168273ffffffffffffffffffffffffffffffffffffffff16036200035f576040517f08c379a0000000000000000000000000000000000000000000000000000000008152600401620003569062000c94565b60405180910390fd5b6200037081620002a660201b60201c565b15620003b3576040517f08c379a0000000000000000000000000000000000000000000000000000000008152600401620003aa9062000d02565b60405180910390fd5b620003c85f838360016200070260201b60201c565b620003d981620002a660201b60201c565b156200041c576040517f08c379a0000000000000000000000000000000000000000000000000000000008152600401620004139062000d02565b60405180910390fd5b600160035f8473ffffffffffffffffffffffffffffffffffffffff1673ffffffffffffffffffffffffffffffffffffffff1681526020019081526020015f205f82825401925050819055508160025f8381526020019081526020015f205f6101000a81548173ffffffffffffffffffffffffffffffffffffffff021916908373ffffffffffffffffffffffffffffffffffffffff160217905550808273ffffffffffffffffffffffffffffffffffffffff165f73ffffffffffffffffffffffffffffffffffffffff167fddf252ad1be2c89b69c2b068fc378daa952ba7f163c4a11628f55a4df523b3ef60405160405180910390a4620005265f838360016200070860201b60201c565b5050565b5f620005528473ffffffffffffffffffffffffffffffffffffffff166200070e60201b60201c565b15620006bc578373ffffffffffffffffffffffffffffffffffffffff1663150b7a02620005846200073060201b60201c565b8786866040518563ffffffff1660e01b8152600401620005a8949392919062000df9565b6020604051808303815f875af1925050508015620005e657506040513d601f19601f82011682018060405250810190620005e3919062000ea5565b60015b6200066b573d805f811462000617576040519150601f19603f3d011682016040523d82523d5f602084013e6200061c565b606091505b505f81510362000663576040517f08c379a00000000000000000000000000000000000000000000000000000000081526004016200065a9062000c26565b60405180910390fd5b805181602001fd5b63150b7a0260e01b7bffffffffffffffffffffffffffffffffffffffffffffffffffffffff1916817bffffffffffffffffffffffffffffffffffffffffffffffffffffffff191614915050620006c1565b600190505b949350505050565b5f60025f8381526020019081526020015f205f9054906101000a900473ffffffffffffffffffffffffffffffffffffffff169050919050565b50505050565b50505050565b5f808273ffffffffffffffffffffffffffffffffffffffff163b119050919050565b5f33905090565b5f80fd5b5f819050919050565b6200074f816200073b565b81146200075a575f80fd5b50565b5f815190506200076d8162000744565b92915050565b5f602082840312156200078b576200078a62000737565b5b5f6200079a848285016200075d565b91505092915050565b5f81519050919050565b7f4e487b71000000000000000000000000000000000000000000000000000000005f52604160045260245ffd5b7f4e487b71000000000000000000000000000000000000000000000000000000005f52602260045260245ffd5b5f60028204905060018216806200081f57607f821691505b602082108103620008355762000834620007da565b5b50919050565b5f819050815f5260205f209050919050565b5f6020601f8301049050919050565b5f82821b905092915050565b5f60088302620008997fffffffffffffffffffffffffffffffffffffffffffffffffffffffffffffffff826200085c565b620008a586836200085c565b95508019841693508086168417925050509392505050565b5f819050919050565b5f620008e6620008e0620008da846200073b565b620008bd565b6200073b565b9050919050565b5f819050919050565b6200090183620008c6565b620009196200091082620008ed565b84845462000868565b825550505050565b5f90565b6200092f62000921565b6200093c818484620008f6565b505050565b5b818110156200096357620009575f8262000925565b60018101905062000942565b5050565b601f821115620009b2576200097c816200083b565b62000987846200084d565b8101602085101562000997578190505b620009af620009a6856200084d565b83018262000941565b50505b505050565b5f82821c905092915050565b5f620009d45f1984600802620009b7565b1980831691505092915050565b5f620009ee8383620009c3565b9150826002028217905092915050565b62000a0982620007a3565b67ffffffffffffffff81111562000a255762000a24620007ad565b5b62000a31825462000807565b62000a3e82828562000967565b5f60209050601f83116001811462000a74575f841562000a5f578287015190505b62000a6b8582620009e1565b86555062000ada565b601f19841662000a84866200083b565b5f5b8281101562000aad5784890151825560018201915060208501945060208101905062000a86565b8683101562000acd578489015162000ac9601f891682620009c3565b8355505b6001600288020188555050505b505050505050565b5f82825260208201905092915050565b7f45524337323155524953746f726167653a2055524920736574206f66206e6f6e5f8201527f6578697374656e7420746f6b656e000000000000000000000000000000000000602082015250565b5f62000b4e602e8362000ae2565b915062000b5b8262000af2565b604082019050919050565b5f6020820190508181035f83015262000b7f8162000b40565b9050919050565b62000b91816200073b565b82525050565b5f60208201905062000bac5f83018462000b86565b92915050565b7f4552433732313a207472616e7366657220746f206e6f6e2045524337323152655f8201527f63656976657220696d706c656d656e7465720000000000000000000000000000602082015250565b5f62000c0e60328362000ae2565b915062000c1b8262000bb2565b604082019050919050565b5f6020820190508181035f83015262000c3f8162000c00565b9050919050565b7f4552433732313a206d696e7420746f20746865207a65726f20616464726573735f82015250565b5f62000c7c60208362000ae2565b915062000c898262000c46565b602082019050919050565b5f6020820190508181035f83015262000cad8162000c6e565b9050919050565b7f4552433732313a20746f6b656e20616c7265616479206d696e746564000000005f82015250565b5f62000cea601c8362000ae2565b915062000cf78262000cb4565b602082019050919050565b5f6020820190508181035f83015262000d1b8162000cdc565b9050919050565b5f73ffffffffffffffffffffffffffffffffffffffff82169050919050565b5f62000d4d8262000d22565b9050919050565b62000d5f8162000d41565b82525050565b5f81519050919050565b5f82825260208201905092915050565b5f5b8381101562000d9e57808201518184015260208101905062000d81565b5f8484015250505050565b5f601f19601f8301169050919050565b5f62000dc58262000d65565b62000dd1818562000d6f565b935062000de381856020860162000d7f565b62000dee8162000da9565b840191505092915050565b5f60808201905062000e0e5f83018762000d54565b62000e1d602083018662000d54565b62000e2c604083018562000b86565b818103606083015262000e40818462000db9565b905095945050505050565b5f7fffffffff0000000000000000000000000000000000000000000000000000000082169050919050565b62000e818162000e4b565b811462000e8c575f80fd5b50565b5f8151905062000e9f8162000e76565b92915050565b5f6020828403121562000ebd5762000ebc62000737565b5b5f62000ecc8482850162000e8f565b91505092915050565b6080516131d962000ef55f395f818161073a01526109b501526131d95ff3fe608060405234801561000f575f80fd5b506004361061011f575f3560e01c80634e285928116100ab578063a22cb4651161006f578063a22cb46514610318578063b88d4fde14610334578063c87b56dd14610350578063e985e9c514610380578063eb3d68e7146103b05761011f565b80634e2859281461024b5780636352211e146102695780636e04ff0d1461029957806370a08231146102ca57806395d89b41146102fa5761011f565b80630a949bdd116100f25780630a949bdd146101bd57806323b872dd146101db57806340d097c3146101f757806342842e0e146102135780634585e33b1461022f5761011f565b806301ffc9a71461012357806306fdde0314610153578063081812fc14610171578063095ea7b3146101a1575b5f80fd5b61013d60048036038101906101389190611edf565b6103e0565b60405161014a9190611f24565b60405180910390f35b61015b6103f1565b6040516101689190611fc7565b60405180910390f35b61018b6004803603810190610186919061201a565b610480565b6040516101989190612084565b60405180910390f35b6101bb60048036038101906101b691906120c7565b6104c2565b005b6101c56105d8565b6040516101d29190612114565b60405180910390f35b6101f560048036038101906101f0919061212d565b6105e4565b005b610211600480360381019061020c919061217d565b610644565b005b61022d6004803603810190610228919061212d565b610719565b005b61024960048036038101906102449190612209565b610738565b005b610253610858565b6040516102609190612357565b60405180910390f35b610283600480360381019061027e919061201a565b61092c565b6040516102909190612084565b60405180910390f35b6102b360048036038101906102ae9190612209565b6109b0565b6040516102c19291906123c9565b60405180910390f35b6102e460048036038101906102df919061217d565b610a0b565b6040516102f19190612114565b60405180910390f35b610302610abf565b60405161030f9190611fc7565b60405180910390f35b610332600480360381019061032d9190612421565b610b4f565b005b61034e60048036038101906103499190612587565b610b65565b005b61036a6004803603810190610365919061201a565b610bc7565b6040516103779190611fc7565b60405180910390f35b61039a60048036038101906103959190612607565b610bd9565b6040516103a79190611f24565b60405180910390f35b6103ca60048036038101906103c591906126e3565b610c67565b6040516103d79190612357565b60405180910390f35b5f6103ea82610d6f565b9050919050565b60605f80546103ff90612757565b80601f016020809104026020016040519081016040528092919081815260200182805461042b90612757565b80156104765780601f1061044d57610100808354040283529160200191610476565b820191905f5260205f20905b81548152906001019060200180831161045957829003601f168201915b5050505050905090565b5f61048a82610dcf565b60045f8381526020019081526020015f205f9054906101000a900473ffffffffffffffffffffffffffffffffffffffff169050919050565b5f6104cc8261092c565b90508073ffffffffffffffffffffffffffffffffffffffff168373ffffffffffffffffffffffffffffffffffffffff160361053c576040517f08c379a0000000000000000000000000000000000000000000000000000000008152600401610533906127f7565b60405180910390fd5b8073ffffffffffffffffffffffffffffffffffffffff1661055b610e1a565b73ffffffffffffffffffffffffffffffffffffffff16148061058a575061058981610584610e1a565b610bd9565b5b6105c9576040517f08c379a00000000000000000000000000000000000000000000000000000000081526004016105c090612885565b60405180910390fd5b6105d38383610e21565b505050565b5f600880549050905090565b6105f56105ef610e1a565b82610ed7565b610634576040517f08c379a000000000000000000000000000000000000000000000000000000000815260040161062b90612913565b60405180910390fd5b61063f838383610f6b565b505050565b610657816106526007611257565b611263565b61070c6106646007611257565b60085f8154811061067857610677612931565b5b905f5260205f2001805461068b90612757565b80601f01602080910402602001604051908101604052809291908181526020018280546106b790612757565b80156107025780601f106106d957610100808354040283529160200191610702565b820191905f5260205f20905b8154815290600101906020018083116106e557829003601f168201915b5050505050611280565b6107166007611322565b50565b61073383838360405180602001604052805f815250610b65565b505050565b7f000000000000000000000000000000000000000000000000000000000000000060095442610767919061298b565b11801561077f575060088054905061077d6105d8565b105b156108545761084c60016107936007611257565b61079d919061298b565b60086107a76105d8565b815481106107b8576107b7612931565b5b905f5260205f200180546107cb90612757565b80601f01602080910402602001604051908101604052809291908181526020018280546107f790612757565b80156108425780601f1061081957610100808354040283529160200191610842565b820191905f5260205f20905b81548152906001019060200180831161082557829003601f168201915b5050505050611280565b426009819055505b5050565b60606008805480602002602001604051908101604052809291908181526020015f905b82821015610923578382905f5260205f2001805461089890612757565b80601f01602080910402602001604051908101604052809291908181526020018280546108c490612757565b801561090f5780601f106108e65761010080835404028352916020019161090f565b820191905f5260205f20905b8154815290600101906020018083116108f257829003601f168201915b50505050508152602001906001019061087b565b50505050905090565b5f8061093783611336565b90505f73ffffffffffffffffffffffffffffffffffffffff168173ffffffffffffffffffffffffffffffffffffffff16036109a7576040517f08c379a000000000000000000000000000000000000000000000000000000000815260040161099e90612a08565b60405180910390fd5b80915050919050565b5f60607f0000000000000000000000000000000000000000000000000000000000000000600954426109e2919061298b565b1180156109fa57506008805490506109f86105d8565b105b15610a0457600191505b9250929050565b5f8073ffffffffffffffffffffffffffffffffffffffff168273ffffffffffffffffffffffffffffffffffffffff1603610a7a576040517f08c379a0000000000000000000000000000000000000000000000000000000008152600401610a7190612a96565b60405180910390fd5b60035f8373ffffffffffffffffffffffffffffffffffffffff1673ffffffffffffffffffffffffffffffffffffffff1681526020019081526020015f20549050919050565b606060018054610ace90612757565b80601f0160208091040260200160405190810160405280929190818152602001828054610afa90612757565b8015610b455780601f10610b1c57610100808354040283529160200191610b45565b820191905f5260205f20905b815481529060010190602001808311610b2857829003601f168201915b5050505050905090565b610b61610b5a610e1a565b838361136f565b5050565b610b76610b70610e1a565b83610ed7565b610bb5576040517f08c379a0000000000000000000000000000000000000000000000000000000008152600401610bac90612913565b60405180910390fd5b610bc1848484846114d6565b50505050565b6060610bd282611532565b9050919050565b5f60055f8473ffffffffffffffffffffffffffffffffffffffff1673ffffffffffffffffffffffffffffffffffffffff1681526020019081526020015f205f8373ffffffffffffffffffffffffffffffffffffffff1673ffffffffffffffffffffffffffffffffffffffff1681526020019081526020015f205f9054906101000a900460ff16905092915050565b6060600882908060018154018082558091505060019003905f5260205f20015f909190919091509081610c9a9190612c51565b506008805480602002602001604051908101604052809291908181526020015f905b82821015610d64578382905f5260205f20018054610cd990612757565b80601f0160208091040260200160405190810160405280929190818152602001828054610d0590612757565b8015610d505780601f10610d2757610100808354040283529160200191610d50565b820191905f5260205f20905b815481529060010190602001808311610d3357829003601f168201915b505050505081526020019060010190610cbc565b505050509050919050565b5f634906490660e01b7bffffffffffffffffffffffffffffffffffffffffffffffffffffffff1916827bffffffffffffffffffffffffffffffffffffffffffffffffffffffff19161480610dc85750610dc78261163c565b5b9050919050565b610dd88161171d565b610e17576040517f08c379a0000000000000000000000000000000000000000000000000000000008152600401610e0e90612a08565b60405180910390fd5b50565b5f33905090565b8160045f8381526020019081526020015f205f6101000a81548173ffffffffffffffffffffffffffffffffffffffff021916908373ffffffffffffffffffffffffffffffffffffffff160217905550808273ffffffffffffffffffffffffffffffffffffffff16610e918361092c565b73ffffffffffffffffffffffffffffffffffffffff167f8c5be1e5ebec7d5bd14f71427d1e84f3dd0314c0f7b2291e5b200ac8c7c3b92560405160405180910390a45050565b5f80610ee28361092c565b90508073ffffffffffffffffffffffffffffffffffffffff168473ffffffffffffffffffffffffffffffffffffffff161480610f245750610f238185610bd9565b5b80610f6257508373ffffffffffffffffffffffffffffffffffffffff16610f4a84610480565b73ffffffffffffffffffffffffffffffffffffffff16145b91505092915050565b8273ffffffffffffffffffffffffffffffffffffffff16610f8b8261092c565b73ffffffffffffffffffffffffffffffffffffffff1614610fe1576040517f08c379a0000000000000000000000000000000000000000000000000000000008152600401610fd890612d90565b60405180910390fd5b5f73ffffffffffffffffffffffffffffffffffffffff168273ffffffffffffffffffffffffffffffffffffffff160361104f576040517f08c379a000000000000000000000000000000000000000000000000000000000815260040161104690612e1e565b60405180910390fd5b61105c838383600161175d565b8273ffffffffffffffffffffffffffffffffffffffff1661107c8261092c565b73ffffffffffffffffffffffffffffffffffffffff16146110d2576040517f08c379a00000000000000000000000000000000000000000000000000000000081526004016110c990612d90565b60405180910390fd5b60045f8281526020019081526020015f205f6101000a81549073ffffffffffffffffffffffffffffffffffffffff0219169055600160035f8573ffffffffffffffffffffffffffffffffffffffff1673ffffffffffffffffffffffffffffffffffffffff1681526020019081526020015f205f8282540392505081905550600160035f8473ffffffffffffffffffffffffffffffffffffffff1673ffffffffffffffffffffffffffffffffffffffff1681526020019081526020015f205f82825401925050819055508160025f8381526020019081526020015f205f6101000a81548173ffffffffffffffffffffffffffffffffffffffff021916908373ffffffffffffffffffffffffffffffffffffffff160217905550808273ffffffffffffffffffffffffffffffffffffffff168473ffffffffffffffffffffffffffffffffffffffff167fddf252ad1be2c89b69c2b068fc378daa952ba7f163c4a11628f55a4df523b3ef60405160405180910390a46112528383836001611763565b505050565b5f815f01549050919050565b61127c828260405180602001604052805f815250611769565b5050565b6112898261171d565b6112c8576040517f08c379a00000000000000000000000000000000000000000000000000000000081526004016112bf90612eac565b60405180910390fd5b8060065f8481526020019081526020015f2090816112e69190612c51565b507ff8e1a15aba9398e019f0b49df1a4fde98ee17ae345cb5f6b5e2c27f5033e8ce7826040516113169190612114565b60405180910390a15050565b6001815f015f828254019250508190555050565b5f60025f8381526020019081526020015f205f9054906101000a900473ffffffffffffffffffffffffffffffffffffffff169050919050565b8173ffffffffffffffffffffffffffffffffffffffff168373ffffffffffffffffffffffffffffffffffffffff16036113dd576040517f08c379a00000000000000000000000000000000000000000000000000000000081526004016113d490612f14565b60405180910390fd5b8060055f8573ffffffffffffffffffffffffffffffffffffffff1673ffffffffffffffffffffffffffffffffffffffff1681526020019081526020015f205f8473ffffffffffffffffffffffffffffffffffffffff1673ffffffffffffffffffffffffffffffffffffffff1681526020019081526020015f205f6101000a81548160ff0219169083151502179055508173ffffffffffffffffffffffffffffffffffffffff168373ffffffffffffffffffffffffffffffffffffffff167f17307eab39ab6107e8899845ad3d59bd9653f200f220920489ca2b5937696c31836040516114c99190611f24565b60405180910390a3505050565b6114e1848484610f6b565b6114ed848484846117c3565b61152c576040517f08c379a000000000000000000000000000000000000000000000000000000000815260040161152390612fa2565b60405180910390fd5b50505050565b606061153d82610dcf565b5f60065f8481526020019081526020015f20805461155a90612757565b80601f016020809104026020016040519081016040528092919081815260200182805461158690612757565b80156115d15780601f106115a8576101008083540402835291602001916115d1565b820191905f5260205f20905b8154815290600101906020018083116115b457829003601f168201915b505050505090505f6115e1611945565b90505f8151036115f5578192505050611637565b5f82511115611629578082604051602001611611929190612ffa565b60405160208183030381529060405292505050611637565b6116328461195b565b925050505b919050565b5f7f80ac58cd000000000000000000000000000000000000000000000000000000007bffffffffffffffffffffffffffffffffffffffffffffffffffffffff1916827bffffffffffffffffffffffffffffffffffffffffffffffffffffffff1916148061170657507f5b5e139f000000000000000000000000000000000000000000000000000000007bffffffffffffffffffffffffffffffffffffffffffffffffffffffff1916827bffffffffffffffffffffffffffffffffffffffffffffffffffffffff1916145b806117165750611715826119c0565b5b9050919050565b5f8073ffffffffffffffffffffffffffffffffffffffff1661173e83611336565b73ffffffffffffffffffffffffffffffffffffffff1614159050919050565b50505050565b50505050565b6117738383611a29565b61177f5f8484846117c3565b6117be576040517f08c379a00000000000000000000000000000000000000000000000000000000081526004016117b590612fa2565b60405180910390fd5b505050565b5f6117e38473ffffffffffffffffffffffffffffffffffffffff16611c3c565b15611938578373ffffffffffffffffffffffffffffffffffffffff1663150b7a0261180c610e1a565b8786866040518563ffffffff1660e01b815260040161182e949392919061301d565b6020604051808303815f875af192505050801561186957506040513d601f19601f82011682018060405250810190611866919061307b565b60015b6118e8573d805f8114611897576040519150601f19603f3d011682016040523d82523d5f602084013e61189c565b606091505b505f8151036118e0576040517f08c379a00000000000000000000000000000000000000000000000000000000081526004016118d790612fa2565b60405180910390fd5b805181602001fd5b63150b7a0260e01b7bffffffffffffffffffffffffffffffffffffffffffffffffffffffff1916817bffffffffffffffffffffffffffffffffffffffffffffffffffffffff19161491505061193d565b600190505b949350505050565b606060405180602001604052805f815250905090565b606061196682610dcf565b5f61196f611945565b90505f81511161198d5760405180602001604052805f8152506119b8565b8061199784611c5e565b6040516020016119a8929190612ffa565b6040516020818303038152906040525b915050919050565b5f7f01ffc9a7000000000000000000000000000000000000000000000000000000007bffffffffffffffffffffffffffffffffffffffffffffffffffffffff1916827bffffffffffffffffffffffffffffffffffffffffffffffffffffffff1916149050919050565b5f73ffffffffffffffffffffffffffffffffffffffff168273ffffffffffffffffffffffffffffffffffffffff1603611a97576040517f08c379a0000000000000000000000000000000000000000000000000000000008152600401611a8e906130f0565b60405180910390fd5b611aa08161171d565b15611ae0576040517f08c379a0000000000000000000000000000000000000000000000000000000008152600401611ad790613158565b60405180910390fd5b611aed5f8383600161175d565b611af68161171d565b15611b36576040517f08c379a0000000000000000000000000000000000000000000000000000000008152600401611b2d90613158565b60405180910390fd5b600160035f8473ffffffffffffffffffffffffffffffffffffffff1673ffffffffffffffffffffffffffffffffffffffff1681526020019081526020015f205f82825401925050819055508160025f8381526020019081526020015f205f6101000a81548173ffffffffffffffffffffffffffffffffffffffff021916908373ffffffffffffffffffffffffffffffffffffffff160217905550808273ffffffffffffffffffffffffffffffffffffffff165f73ffffffffffffffffffffffffffffffffffffffff167fddf252ad1be2c89b69c2b068fc378daa952ba7f163c4a11628f55a4df523b3ef60405160405180910390a4611c385f83836001611763565b5050565b5f808273ffffffffffffffffffffffffffffffffffffffff163b119050919050565b60605f6001611c6c84611d28565b0190505f8167ffffffffffffffff811115611c8a57611c89612463565b5b6040519080825280601f01601f191660200182016040528015611cbc5781602001600182028036833780820191505090505b5090505f82602001820190505b600115611d1d578080600190039150507f3031323334353637383961626364656600000000000000000000000000000000600a86061a8153600a8581611d1257611d11613176565b5b0494505f8503611cc9575b819350505050919050565b5f805f90507a184f03e93ff9f4daa797ed6e38ed64bf6a1f0100000000000000008310611d84577a184f03e93ff9f4daa797ed6e38ed64bf6a1f0100000000000000008381611d7a57611d79613176565b5b0492506040810190505b6d04ee2d6d415b85acef81000000008310611dc1576d04ee2d6d415b85acef81000000008381611db757611db6613176565b5b0492506020810190505b662386f26fc100008310611df057662386f26fc100008381611de657611de5613176565b5b0492506010810190505b6305f5e1008310611e19576305f5e1008381611e0f57611e0e613176565b5b0492506008810190505b6127108310611e3e576127108381611e3457611e33613176565b5b0492506004810190505b60648310611e615760648381611e5757611e56613176565b5b0492506002810190505b600a8310611e70576001810190505b80915050919050565b5f604051905090565b5f80fd5b5f80fd5b5f7fffffffff0000000000000000000000000000000000000000000000000000000082169050919050565b611ebe81611e8a565b8114611ec8575f80fd5b50565b5f81359050611ed981611eb5565b92915050565b5f60208284031215611ef457611ef3611e82565b5b5f611f0184828501611ecb565b91505092915050565b5f8115159050919050565b611f1e81611f0a565b82525050565b5f602082019050611f375f830184611f15565b92915050565b5f81519050919050565b5f82825260208201905092915050565b5f5b83811015611f74578082015181840152602081019050611f59565b5f8484015250505050565b5f601f19601f8301169050919050565b5f611f9982611f3d565b611fa38185611f47565b9350611fb3818560208601611f57565b611fbc81611f7f565b840191505092915050565b5f6020820190508181035f830152611fdf8184611f8f565b905092915050565b5f819050919050565b611ff981611fe7565b8114612003575f80fd5b50565b5f8135905061201481611ff0565b92915050565b5f6020828403121561202f5761202e611e82565b5b5f61203c84828501612006565b91505092915050565b5f73ffffffffffffffffffffffffffffffffffffffff82169050919050565b5f61206e82612045565b9050919050565b61207e81612064565b82525050565b5f6020820190506120975f830184612075565b92915050565b6120a681612064565b81146120b0575f80fd5b50565b5f813590506120c18161209d565b92915050565b5f80604083850312156120dd576120dc611e82565b5b5f6120ea858286016120b3565b92505060206120fb85828601612006565b9150509250929050565b61210e81611fe7565b82525050565b5f6020820190506121275f830184612105565b92915050565b5f805f6060848603121561214457612143611e82565b5b5f612151868287016120b3565b9350506020612162868287016120b3565b925050604061217386828701612006565b9150509250925092565b5f6020828403121561219257612191611e82565b5b5f61219f848285016120b3565b91505092915050565b5f80fd5b5f80fd5b5f80fd5b5f8083601f8401126121c9576121c86121a8565b5b8235905067ffffffffffffffff8111156121e6576121e56121ac565b5b602083019150836001820283011115612202576122016121b0565b5b9250929050565b5f806020838503121561221f5761221e611e82565b5b5f83013567ffffffffffffffff81111561223c5761223b611e86565b5b612248858286016121b4565b92509250509250929050565b5f81519050919050565b5f82825260208201905092915050565b5f819050602082019050919050565b5f82825260208201905092915050565b5f61229782611f3d565b6122a1818561227d565b93506122b1818560208601611f57565b6122ba81611f7f565b840191505092915050565b5f6122d0838361228d565b905092915050565b5f602082019050919050565b5f6122ee82612254565b6122f8818561225e565b93508360208202850161230a8561226e565b805f5b85811015612345578484038952815161232685826122c5565b9450612331836122d8565b925060208a0199505060018101905061230d565b50829750879550505050505092915050565b5f6020820190508181035f83015261236f81846122e4565b905092915050565b5f81519050919050565b5f82825260208201905092915050565b5f61239b82612377565b6123a58185612381565b93506123b5818560208601611f57565b6123be81611f7f565b840191505092915050565b5f6040820190506123dc5f830185611f15565b81810360208301526123ee8184612391565b90509392505050565b61240081611f0a565b811461240a575f80fd5b50565b5f8135905061241b816123f7565b92915050565b5f806040838503121561243757612436611e82565b5b5f612444858286016120b3565b92505060206124558582860161240d565b9150509250929050565b5f80fd5b7f4e487b71000000000000000000000000000000000000000000000000000000005f52604160045260245ffd5b61249982611f7f565b810181811067ffffffffffffffff821117156124b8576124b7612463565b5b80604052505050565b5f6124ca611e79565b90506124d68282612490565b919050565b5f67ffffffffffffffff8211156124f5576124f4612463565b5b6124fe82611f7f565b9050602081019050919050565b828183375f83830152505050565b5f61252b612526846124db565b6124c1565b9050828152602081018484840111156125475761254661245f565b5b61255284828561250b565b509392505050565b5f82601f83011261256e5761256d6121a8565b5b813561257e848260208601612519565b91505092915050565b5f805f806080858703121561259f5761259e611e82565b5b5f6125ac878288016120b3565b94505060206125bd878288016120b3565b93505060406125ce87828801612006565b925050606085013567ffffffffffffffff8111156125ef576125ee611e86565b5b6125fb8782880161255a565b91505092959194509250565b5f806040838503121561261d5761261c611e82565b5b5f61262a858286016120b3565b925050602061263b858286016120b3565b9150509250929050565b5f67ffffffffffffffff82111561265f5761265e612463565b5b61266882611f7f565b9050602081019050919050565b5f61268761268284612645565b6124c1565b9050828152602081018484840111156126a3576126a261245f565b5b6126ae84828561250b565b509392505050565b5f82601f8301126126ca576126c96121a8565b5b81356126da848260208601612675565b91505092915050565b5f602082840312156126f8576126f7611e82565b5b5f82013567ffffffffffffffff81111561271557612714611e86565b5b612721848285016126b6565b91505092915050565b7f4e487b71000000000000000000000000000000000000000000000000000000005f52602260045260245ffd5b5f600282049050600182168061276e57607f821691505b6020821081036127815761278061272a565b5b50919050565b7f4552433732313a20617070726f76616c20746f2063757272656e74206f776e655f8201527f7200000000000000000000000000000000000000000000000000000000000000602082015250565b5f6127e1602183611f47565b91506127ec82612787565b604082019050919050565b5f6020820190508181035f83015261280e816127d5565b9050919050565b7f4552433732313a20617070726f76652063616c6c6572206973206e6f7420746f5f8201527f6b656e206f776e6572206f7220617070726f76656420666f7220616c6c000000602082015250565b5f61286f603d83611f47565b915061287a82612815565b604082019050919050565b5f6020820190508181035f83015261289c81612863565b9050919050565b7f4552433732313a2063616c6c6572206973206e6f7420746f6b656e206f776e655f8201527f72206f7220617070726f76656400000000000000000000000000000000000000602082015250565b5f6128fd602d83611f47565b9150612908826128a3565b604082019050919050565b5f6020820190508181035f83015261292a816128f1565b9050919050565b7f4e487b71000000000000000000000000000000000000000000000000000000005f52603260045260245ffd5b7f4e487b71000000000000000000000000000000000000000000000000000000005f52601160045260245ffd5b5f61299582611fe7565b91506129a083611fe7565b92508282039050818111156129b8576129b761295e565b5b92915050565b7f4552433732313a20696e76616c696420746f6b656e20494400000000000000005f82015250565b5f6129f2601883611f47565b91506129fd826129be565b602082019050919050565b5f6020820190508181035f830152612a1f816129e6565b9050919050565b7f4552433732313a2061646472657373207a65726f206973206e6f7420612076615f8201527f6c6964206f776e65720000000000000000000000000000000000000000000000602082015250565b5f612a80602983611f47565b9150612a8b82612a26565b604082019050919050565b5f6020820190508181035f830152612aad81612a74565b9050919050565b5f819050815f5260205f209050919050565b5f6020601f8301049050919050565b5f82821b905092915050565b5f60088302612b107fffffffffffffffffffffffffffffffffffffffffffffffffffffffffffffffff82612ad5565b612b1a8683612ad5565b95508019841693508086168417925050509392505050565b5f819050919050565b5f612b55612b50612b4b84611fe7565b612b32565b611fe7565b9050919050565b5f819050919050565b612b6e83612b3b565b612b82612b7a82612b5c565b848454612ae1565b825550505050565b5f90565b612b96612b8a565b612ba1818484612b65565b505050565b5b81811015612bc457612bb95f82612b8e565b600181019050612ba7565b5050565b601f821115612c0957612bda81612ab4565b612be384612ac6565b81016020851015612bf2578190505b612c06612bfe85612ac6565b830182612ba6565b50505b505050565b5f82821c905092915050565b5f612c295f1984600802612c0e565b1980831691505092915050565b5f612c418383612c1a565b9150826002028217905092915050565b612c5a82611f3d565b67ffffffffffffffff811115612c7357612c72612463565b5b612c7d8254612757565b612c88828285612bc8565b5f60209050601f831160018114612cb9575f8415612ca7578287015190505b612cb18582612c36565b865550612d18565b601f198416612cc786612ab4565b5f5b82811015612cee57848901518255600182019150602085019450602081019050612cc9565b86831015612d0b5784890151612d07601f891682612c1a565b8355505b6001600288020188555050505b505050505050565b7f4552433732313a207472616e736665722066726f6d20696e636f7272656374205f8201527f6f776e6572000000000000000000000000000000000000000000000000000000602082015250565b5f612d7a602583611f47565b9150612d8582612d20565b604082019050919050565b5f6020820190508181035f830152612da781612d6e565b9050919050565b7f4552433732313a207472616e7366657220746f20746865207a65726f206164645f8201527f7265737300000000000000000000000000000000000000000000000000000000602082015250565b5f612e08602483611f47565b9150612e1382612dae565b604082019050919050565b5f6020820190508181035f830152612e3581612dfc565b9050919050565b7f45524337323155524953746f726167653a2055524920736574206f66206e6f6e5f8201527f6578697374656e7420746f6b656e000000000000000000000000000000000000602082015250565b5f612e96602e83611f47565b9150612ea182612e3c565b604082019050919050565b5f6020820190508181035f830152612ec381612e8a565b9050919050565b7f4552433732313a20617070726f766520746f2063616c6c6572000000000000005f82015250565b5f612efe601983611f47565b9150612f0982612eca565b602082019050919050565b5f6020820190508181035f830152612f2b81612ef2565b9050919050565b7f4552433732313a207472616e7366657220746f206e6f6e2045524337323152655f8201527f63656976657220696d706c656d656e7465720000000000000000000000000000602082015250565b5f612f8c603283611f47565b9150612f9782612f32565b604082019050919050565b5f6020820190508181035f830152612fb981612f80565b9050919050565b5f81905092915050565b5f612fd482611f3d565b612fde8185612fc0565b9350612fee818560208601611f57565b80840191505092915050565b5f6130058285612fca565b91506130118284612fca565b91508190509392505050565b5f6080820190506130305f830187612075565b61303d6020830186612075565b61304a6040830185612105565b818103606083015261305c8184612391565b905095945050505050565b5f8151905061307581611eb5565b92915050565b5f602082840312156130905761308f611e82565b5b5f61309d84828501613067565b91505092915050565b7f4552433732313a206d696e7420746f20746865207a65726f20616464726573735f82015250565b5f6130da602083611f47565b91506130e5826130a6565b602082019050919050565b5f6020820190508181035f830152613107816130ce565b9050919050565b7f4552433732313a20746f6b656e20616c7265616479206d696e746564000000005f82015250565b5f613142601c83611f47565b915061314d8261310e565b602082019050919050565b5f6020820190508181035f83015261316f81613136565b9050919050565b7f4e487b71000000000000000000000000000000000000000000000000000000005f52601260045260245ffdfea26469706673582212200675375eaaf7cfbc649ecb2d515c1b1f40a49935250343f63595dd013b3fc60b64736f6c63430008140033a26469706673582212200c41a9ac2a3b91a8450e57b208a6c05acb532773b58d92609959ee8f19f88ef364736f6c63430008140033",
  "immutableReferences": {},
  "source": "// SPDX-License-Identifier: MIT\npragma solidity ^0.8.0;\n\nimport \"../../node_modules/@chainlink/contracts/src/v0.8/AutomationCompatible.sol\";\nimport \"../../node_modules/@openzeppelin/contracts/token/ERC721/extensions/ERC721URIStorage.sol\";\nimport \"../../node_modules/@openzeppelin/contracts/utils/Counters.sol\";\n\ncontract ProfileDNFTFactory {\n    using Counters for Counters.Counter;\n\n    Counters.Counter private profileIdCounter;\n    mapping(address => address) private userToProfile;\n\n    event ProfileCreated(address indexed user, address indexed profile);\n\n    function createProfileDNFT(uint _updateInterval) external {\n        require(\n            userToProfile[msg.sender] == address(0),\n            \"ProfileDNFTFactory: Profile already exists\"\n        );\n\n        ProfileDNFT profile = new ProfileDNFT(_updateInterval);\n        profile.safeMint(msg.sender);\n\n        userToProfile[msg.sender] = address(profile);\n\n        emit ProfileCreated(msg.sender, address(profile));\n    }\n\n    function getUserProfile(address user) public view returns (address) {\n        return userToProfile[user];\n    }\n}\n\ncontract ProfileDNFT is\n    ERC721,\n    ERC721URIStorage,\n    AutomationCompatibleInterface\n{\n    using Counters for Counters.Counter;\n\n    Counters.Counter private tokenIdCounter;\n    string[] private ipfsUri;\n    uint private immutable interval;\n    uint private lastUpdateTime;\n\n    constructor(uint _updateInterval) ERC721(\"UserImages\", \"Photo\") {\n        interval = _updateInterval;\n        lastUpdateTime = block.timestamp;\n        _safeMint(msg.sender, tokenIdCounter.current());\n        _setTokenURI(tokenIdCounter.current(), \"\");\n        tokenIdCounter.increment();\n    }\n\n    function checkUpkeep(\n        bytes calldata\n    )\n        external\n        view\n        override\n        returns (bool upkeepNeeded, bytes memory performData)\n    {\n        if (\n            block.timestamp - lastUpdateTime > interval &&\n            imageStage() < ipfsUri.length\n        ) {\n            upkeepNeeded = true;\n        }\n    }\n\n    function performUpkeep(bytes calldata) external override {\n        if (\n            block.timestamp - lastUpdateTime > interval &&\n            imageStage() < ipfsUri.length\n        ) {\n            _setTokenURI(tokenIdCounter.current() - 1, ipfsUri[imageStage()]);\n            lastUpdateTime = block.timestamp;\n        }\n    }\n\n    function safeMint(address to) public {\n        _safeMint(to, tokenIdCounter.current());\n        _setTokenURI(tokenIdCounter.current(), ipfsUri[0]);\n        tokenIdCounter.increment();\n    }\n\n    function updateImage(\n        string memory _newImageUri\n    ) public returns (string[] memory) {\n        ipfsUri.push(_newImageUri);\n        return ipfsUri;\n    }\n\n    function imageStage() public view returns (uint) {\n        return ipfsUri.length;\n    }\n\n    function getIpfsUri() public view returns (string[] memory) {\n        return ipfsUri;\n    }\n\n    function tokenURI(\n        uint256 tokenId\n    ) public view override(ERC721, ERC721URIStorage) returns (string memory) {\n        return super.tokenURI(tokenId);\n    }\n\n    function _burn(\n        uint256 tokenId\n    ) internal override(ERC721, ERC721URIStorage) {\n        super._burn(tokenId);\n    }\n\n    function supportsInterface(\n        bytes4 interfaceId\n    ) public view override(ERC721, ERC721URIStorage) returns (bool) {\n        return super.supportsInterface(interfaceId);\n    }\n}\n",
  "sourcePath": "/home/evm/sei/flipper/contracts/contracts/User/ProfileDNFTFactory.sol",
  "compiler": {
    "name": "solc",
    "version": "0.8.20+commit.a1b79de6.Emscripten.clang"
  },
  "schemaVersion": "3.4.16",
  "updatedAt": "2025-04-23T06:07:22.435Z",
  "devdoc": {
    "kind": "dev",
    "methods": {},
    "version": 1
  },
  "userdoc": {
    "kind": "user",
    "methods": {},
    "version": 1
  }
}